{"src/optimistic-oracle-v2/implementation/OptimisticOracleV2.sol":{"OptimisticOracleV2":{"abi":[{"type":"constructor","inputs":[],"stateMutability":"nonpayable"},{"type":"function","name":"DEFAULT_ADMIN_ROLE","inputs":[],"outputs":[{"name":"","type":"bytes32","internalType":"bytes32"}],"stateMutability":"view"},{"type":"function","name":"OO_ANCILLARY_DATA_LIMIT","inputs":[],"outputs":[{"name":"","type":"uint256","internalType":"uint256"}],"stateMutability":"view"},{"type":"function","name":"TOO_EARLY_RESPONSE","inputs":[],"outputs":[{"name":"","type":"int256","internalType":"int256"}],"stateMutability":"view"},{"type":"function","name":"UPGRADE_ADMIN_ROLE","inputs":[],"outputs":[{"name":"","type":"bytes32","internalType":"bytes32"}],"stateMutability":"view"},{"type":"function","name":"UPGRADE_INTERFACE_VERSION","inputs":[],"outputs":[{"name":"","type":"string","internalType":"string"}],"stateMutability":"view"},{"type":"function","name":"acceptDefaultAdminTransfer","inputs":[],"outputs":[],"stateMutability":"nonpayable"},{"type":"function","name":"ancillaryBytesLimit","inputs":[],"outputs":[{"name":"","type":"uint256","internalType":"uint256"}],"stateMutability":"view"},{"type":"function","name":"beginDefaultAdminTransfer","inputs":[{"name":"newAdmin","type":"address","internalType":"address"}],"outputs":[],"stateMutability":"nonpayable"},{"type":"function","name":"cancelDefaultAdminTransfer","inputs":[],"outputs":[],"stateMutability":"nonpayable"},{"type":"function","name":"changeDefaultAdminDelay","inputs":[{"name":"newDelay","type":"uint48","internalType":"uint48"}],"outputs":[],"stateMutability":"nonpayable"},{"type":"function","name":"defaultAdmin","inputs":[],"outputs":[{"name":"","type":"address","internalType":"address"}],"stateMutability":"view"},{"type":"function","name":"defaultAdminDelay","inputs":[],"outputs":[{"name":"","type":"uint48","internalType":"uint48"}],"stateMutability":"view"},{"type":"function","name":"defaultAdminDelayIncreaseWait","inputs":[],"outputs":[{"name":"","type":"uint48","internalType":"uint48"}],"stateMutability":"view"},{"type":"function","name":"defaultLiveness","inputs":[],"outputs":[{"name":"","type":"uint256","internalType":"uint256"}],"stateMutability":"view"},{"type":"function","name":"disputePrice","inputs":[{"name":"requester","type":"address","internalType":"address"},{"name":"identifier","type":"bytes32","internalType":"bytes32"},{"name":"timestamp","type":"uint256","internalType":"uint256"},{"name":"ancillaryData","type":"bytes","internalType":"bytes"}],"outputs":[{"name":"totalBond","type":"uint256","internalType":"uint256"}],"stateMutability":"nonpayable"},{"type":"function","name":"disputePriceFor","inputs":[{"name":"disputer","type":"address","internalType":"address"},{"name":"requester","type":"address","internalType":"address"},{"name":"identifier","type":"bytes32","internalType":"bytes32"},{"name":"timestamp","type":"uint256","internalType":"uint256"},{"name":"ancillaryData","type":"bytes","internalType":"bytes"}],"outputs":[{"name":"totalBond","type":"uint256","internalType":"uint256"}],"stateMutability":"nonpayable"},{"type":"function","name":"finder","inputs":[],"outputs":[{"name":"","type":"address","internalType":"contract FinderInterface"}],"stateMutability":"view"},{"type":"function","name":"getCurrentTime","inputs":[],"outputs":[{"name":"","type":"uint256","internalType":"uint256"}],"stateMutability":"view"},{"type":"function","name":"getRequest","inputs":[{"name":"requester","type":"address","internalType":"address"},{"name":"identifier","type":"bytes32","internalType":"bytes32"},{"name":"timestamp","type":"uint256","internalType":"uint256"},{"name":"ancillaryData","type":"bytes","internalType":"bytes"}],"outputs":[{"name":"","type":"tuple","internalType":"struct OptimisticOracleV2Interface.Request","components":[{"name":"proposer","type":"address","internalType":"address"},{"name":"disputer","type":"address","internalType":"address"},{"name":"currency","type":"address","internalType":"contract IERC20"},{"name":"settled","type":"bool","internalType":"bool"},{"name":"requestSettings","type":"tuple","internalType":"struct OptimisticOracleV2Interface.RequestSettings","components":[{"name":"eventBased","type":"bool","internalType":"bool"},{"name":"refundOnDispute","type":"bool","internalType":"bool"},{"name":"callbackOnPriceProposed","type":"bool","internalType":"bool"},{"name":"callbackOnPriceDisputed","type":"bool","internalType":"bool"},{"name":"callbackOnPriceSettled","type":"bool","internalType":"bool"},{"name":"bond","type":"uint256","internalType":"uint256"},{"name":"customLiveness","type":"uint256","internalType":"uint256"}]},{"name":"proposedPrice","type":"int256","internalType":"int256"},{"name":"resolvedPrice","type":"int256","internalType":"int256"},{"name":"expirationTime","type":"uint256","internalType":"uint256"},{"name":"reward","type":"uint256","internalType":"uint256"},{"name":"finalFee","type":"uint256","internalType":"uint256"}]}],"stateMutability":"view"},{"type":"function","name":"getRoleAdmin","inputs":[{"name":"role","type":"bytes32","internalType":"bytes32"}],"outputs":[{"name":"","type":"bytes32","internalType":"bytes32"}],"stateMutability":"view"},{"type":"function","name":"getState","inputs":[{"name":"requester","type":"address","internalType":"address"},{"name":"identifier","type":"bytes32","internalType":"bytes32"},{"name":"timestamp","type":"uint256","internalType":"uint256"},{"name":"ancillaryData","type":"bytes","internalType":"bytes"}],"outputs":[{"name":"","type":"uint8","internalType":"enum OptimisticOracleV2Interface.State"}],"stateMutability":"view"},{"type":"function","name":"grantRole","inputs":[{"name":"role","type":"bytes32","internalType":"bytes32"},{"name":"account","type":"address","internalType":"address"}],"outputs":[],"stateMutability":"nonpayable"},{"type":"function","name":"hasPrice","inputs":[{"name":"requester","type":"address","internalType":"address"},{"name":"identifier","type":"bytes32","internalType":"bytes32"},{"name":"timestamp","type":"uint256","internalType":"uint256"},{"name":"ancillaryData","type":"bytes","internalType":"bytes"}],"outputs":[{"name":"","type":"bool","internalType":"bool"}],"stateMutability":"view"},{"type":"function","name":"hasRole","inputs":[{"name":"role","type":"bytes32","internalType":"bytes32"},{"name":"account","type":"address","internalType":"address"}],"outputs":[{"name":"","type":"bool","internalType":"bool"}],"stateMutability":"view"},{"type":"function","name":"initialize","inputs":[{"name":"_liveness","type":"uint256","internalType":"uint256"},{"name":"_finderAddress","type":"address","internalType":"address"},{"name":"upgradeAdmin","type":"address","internalType":"address"}],"outputs":[],"stateMutability":"nonpayable"},{"type":"function","name":"owner","inputs":[],"outputs":[{"name":"","type":"address","internalType":"address"}],"stateMutability":"view"},{"type":"function","name":"pendingDefaultAdmin","inputs":[],"outputs":[{"name":"newAdmin","type":"address","internalType":"address"},{"name":"schedule","type":"uint48","internalType":"uint48"}],"stateMutability":"view"},{"type":"function","name":"pendingDefaultAdminDelay","inputs":[],"outputs":[{"name":"newDelay","type":"uint48","internalType":"uint48"},{"name":"schedule","type":"uint48","internalType":"uint48"}],"stateMutability":"view"},{"type":"function","name":"proposePrice","inputs":[{"name":"requester","type":"address","internalType":"address"},{"name":"identifier","type":"bytes32","internalType":"bytes32"},{"name":"timestamp","type":"uint256","internalType":"uint256"},{"name":"ancillaryData","type":"bytes","internalType":"bytes"},{"name":"proposedPrice","type":"int256","internalType":"int256"}],"outputs":[{"name":"totalBond","type":"uint256","internalType":"uint256"}],"stateMutability":"nonpayable"},{"type":"function","name":"proposePriceFor","inputs":[{"name":"proposer","type":"address","internalType":"address"},{"name":"requester","type":"address","internalType":"address"},{"name":"identifier","type":"bytes32","internalType":"bytes32"},{"name":"timestamp","type":"uint256","internalType":"uint256"},{"name":"ancillaryData","type":"bytes","internalType":"bytes"},{"name":"proposedPrice","type":"int256","internalType":"int256"}],"outputs":[{"name":"totalBond","type":"uint256","internalType":"uint256"}],"stateMutability":"nonpayable"},{"type":"function","name":"proxiableUUID","inputs":[],"outputs":[{"name":"","type":"bytes32","internalType":"bytes32"}],"stateMutability":"view"},{"type":"function","name":"renounceRole","inputs":[{"name":"role","type":"bytes32","internalType":"bytes32"},{"name":"account","type":"address","internalType":"address"}],"outputs":[],"stateMutability":"nonpayable"},{"type":"function","name":"requestPrice","inputs":[{"name":"identifier","type":"bytes32","internalType":"bytes32"},{"name":"timestamp","type":"uint256","internalType":"uint256"},{"name":"ancillaryData","type":"bytes","internalType":"bytes"},{"name":"currency","type":"address","internalType":"contract IERC20"},{"name":"reward","type":"uint256","internalType":"uint256"}],"outputs":[{"name":"totalBond","type":"uint256","internalType":"uint256"}],"stateMutability":"nonpayable"},{"type":"function","name":"requests","inputs":[{"name":"","type":"bytes32","internalType":"bytes32"}],"outputs":[{"name":"proposer","type":"address","internalType":"address"},{"name":"disputer","type":"address","internalType":"address"},{"name":"currency","type":"address","internalType":"contract IERC20"},{"name":"settled","type":"bool","internalType":"bool"},{"name":"requestSettings","type":"tuple","internalType":"struct OptimisticOracleV2Interface.RequestSettings","components":[{"name":"eventBased","type":"bool","internalType":"bool"},{"name":"refundOnDispute","type":"bool","internalType":"bool"},{"name":"callbackOnPriceProposed","type":"bool","internalType":"bool"},{"name":"callbackOnPriceDisputed","type":"bool","internalType":"bool"},{"name":"callbackOnPriceSettled","type":"bool","internalType":"bool"},{"name":"bond","type":"uint256","internalType":"uint256"},{"name":"customLiveness","type":"uint256","internalType":"uint256"}]},{"name":"proposedPrice","type":"int256","internalType":"int256"},{"name":"resolvedPrice","type":"int256","internalType":"int256"},{"name":"expirationTime","type":"uint256","internalType":"uint256"},{"name":"reward","type":"uint256","internalType":"uint256"},{"name":"finalFee","type":"uint256","internalType":"uint256"}],"stateMutability":"view"},{"type":"function","name":"revokeRole","inputs":[{"name":"role","type":"bytes32","internalType":"bytes32"},{"name":"account","type":"address","internalType":"address"}],"outputs":[],"stateMutability":"nonpayable"},{"type":"function","name":"rollbackDefaultAdminDelay","inputs":[],"outputs":[],"stateMutability":"nonpayable"},{"type":"function","name":"setBond","inputs":[{"name":"identifier","type":"bytes32","internalType":"bytes32"},{"name":"timestamp","type":"uint256","internalType":"uint256"},{"name":"ancillaryData","type":"bytes","internalType":"bytes"},{"name":"bond","type":"uint256","internalType":"uint256"}],"outputs":[{"name":"totalBond","type":"uint256","internalType":"uint256"}],"stateMutability":"nonpayable"},{"type":"function","name":"setCallbacks","inputs":[{"name":"identifier","type":"bytes32","internalType":"bytes32"},{"name":"timestamp","type":"uint256","internalType":"uint256"},{"name":"ancillaryData","type":"bytes","internalType":"bytes"},{"name":"callbackOnPriceProposed","type":"bool","internalType":"bool"},{"name":"callbackOnPriceDisputed","type":"bool","internalType":"bool"},{"name":"callbackOnPriceSettled","type":"bool","internalType":"bool"}],"outputs":[],"stateMutability":"nonpayable"},{"type":"function","name":"setCustomLiveness","inputs":[{"name":"identifier","type":"bytes32","internalType":"bytes32"},{"name":"timestamp","type":"uint256","internalType":"uint256"},{"name":"ancillaryData","type":"bytes","internalType":"bytes"},{"name":"customLiveness","type":"uint256","internalType":"uint256"}],"outputs":[],"stateMutability":"nonpayable"},{"type":"function","name":"setEventBased","inputs":[{"name":"identifier","type":"bytes32","internalType":"bytes32"},{"name":"timestamp","type":"uint256","internalType":"uint256"},{"name":"ancillaryData","type":"bytes","internalType":"bytes"}],"outputs":[],"stateMutability":"nonpayable"},{"type":"function","name":"setRefundOnDispute","inputs":[{"name":"identifier","type":"bytes32","internalType":"bytes32"},{"name":"timestamp","type":"uint256","internalType":"uint256"},{"name":"ancillaryData","type":"bytes","internalType":"bytes"}],"outputs":[],"stateMutability":"nonpayable"},{"type":"function","name":"settle","inputs":[{"name":"requester","type":"address","internalType":"address"},{"name":"identifier","type":"bytes32","internalType":"bytes32"},{"name":"timestamp","type":"uint256","internalType":"uint256"},{"name":"ancillaryData","type":"bytes","internalType":"bytes"}],"outputs":[{"name":"payout","type":"uint256","internalType":"uint256"}],"stateMutability":"nonpayable"},{"type":"function","name":"settleAndGetPrice","inputs":[{"name":"identifier","type":"bytes32","internalType":"bytes32"},{"name":"timestamp","type":"uint256","internalType":"uint256"},{"name":"ancillaryData","type":"bytes","internalType":"bytes"}],"outputs":[{"name":"","type":"int256","internalType":"int256"}],"stateMutability":"nonpayable"},{"type":"function","name":"stampAncillaryData","inputs":[{"name":"ancillaryData","type":"bytes","internalType":"bytes"},{"name":"requester","type":"address","internalType":"address"}],"outputs":[{"name":"","type":"bytes","internalType":"bytes"}],"stateMutability":"pure"},{"type":"function","name":"supportsInterface","inputs":[{"name":"interfaceId","type":"bytes4","internalType":"bytes4"}],"outputs":[{"name":"","type":"bool","internalType":"bool"}],"stateMutability":"view"},{"type":"function","name":"upgradeToAndCall","inputs":[{"name":"newImplementation","type":"address","internalType":"address"},{"name":"data","type":"bytes","internalType":"bytes"}],"outputs":[],"stateMutability":"payable"},{"type":"event","name":"DefaultAdminDelayChangeCanceled","inputs":[],"anonymous":false},{"type":"event","name":"DefaultAdminDelayChangeScheduled","inputs":[{"name":"newDelay","type":"uint48","indexed":false,"internalType":"uint48"},{"name":"effectSchedule","type":"uint48","indexed":false,"internalType":"uint48"}],"anonymous":false},{"type":"event","name":"DefaultAdminTransferCanceled","inputs":[],"anonymous":false},{"type":"event","name":"DefaultAdminTransferScheduled","inputs":[{"name":"newAdmin","type":"address","indexed":true,"internalType":"address"},{"name":"acceptSchedule","type":"uint48","indexed":false,"internalType":"uint48"}],"anonymous":false},{"type":"event","name":"DisputePrice","inputs":[{"name":"requester","type":"address","indexed":true,"internalType":"address"},{"name":"proposer","type":"address","indexed":true,"internalType":"address"},{"name":"disputer","type":"address","indexed":true,"internalType":"address"},{"name":"identifier","type":"bytes32","indexed":false,"internalType":"bytes32"},{"name":"timestamp","type":"uint256","indexed":false,"internalType":"uint256"},{"name":"ancillaryData","type":"bytes","indexed":false,"internalType":"bytes"},{"name":"proposedPrice","type":"int256","indexed":false,"internalType":"int256"}],"anonymous":false},{"type":"event","name":"Initialized","inputs":[{"name":"version","type":"uint64","indexed":false,"internalType":"uint64"}],"anonymous":false},{"type":"event","name":"ProposePrice","inputs":[{"name":"requester","type":"address","indexed":true,"internalType":"address"},{"name":"proposer","type":"address","indexed":true,"internalType":"address"},{"name":"identifier","type":"bytes32","indexed":false,"internalType":"bytes32"},{"name":"timestamp","type":"uint256","indexed":false,"internalType":"uint256"},{"name":"ancillaryData","type":"bytes","indexed":false,"internalType":"bytes"},{"name":"proposedPrice","type":"int256","indexed":false,"internalType":"int256"},{"name":"expirationTimestamp","type":"uint256","indexed":false,"internalType":"uint256"},{"name":"currency","type":"address","indexed":false,"internalType":"address"}],"anonymous":false},{"type":"event","name":"RequestPrice","inputs":[{"name":"requester","type":"address","indexed":true,"internalType":"address"},{"name":"identifier","type":"bytes32","indexed":false,"internalType":"bytes32"},{"name":"timestamp","type":"uint256","indexed":false,"internalType":"uint256"},{"name":"ancillaryData","type":"bytes","indexed":false,"internalType":"bytes"},{"name":"currency","type":"address","indexed":false,"internalType":"address"},{"name":"reward","type":"uint256","indexed":false,"internalType":"uint256"},{"name":"finalFee","type":"uint256","indexed":false,"internalType":"uint256"}],"anonymous":false},{"type":"event","name":"RoleAdminChanged","inputs":[{"name":"role","type":"bytes32","indexed":true,"internalType":"bytes32"},{"name":"previousAdminRole","type":"bytes32","indexed":true,"internalType":"bytes32"},{"name":"newAdminRole","type":"bytes32","indexed":true,"internalType":"bytes32"}],"anonymous":false},{"type":"event","name":"RoleGranted","inputs":[{"name":"role","type":"bytes32","indexed":true,"internalType":"bytes32"},{"name":"account","type":"address","indexed":true,"internalType":"address"},{"name":"sender","type":"address","indexed":true,"internalType":"address"}],"anonymous":false},{"type":"event","name":"RoleRevoked","inputs":[{"name":"role","type":"bytes32","indexed":true,"internalType":"bytes32"},{"name":"account","type":"address","indexed":true,"internalType":"address"},{"name":"sender","type":"address","indexed":true,"internalType":"address"}],"anonymous":false},{"type":"event","name":"Settle","inputs":[{"name":"requester","type":"address","indexed":true,"internalType":"address"},{"name":"proposer","type":"address","indexed":true,"internalType":"address"},{"name":"disputer","type":"address","indexed":true,"internalType":"address"},{"name":"identifier","type":"bytes32","indexed":false,"internalType":"bytes32"},{"name":"timestamp","type":"uint256","indexed":false,"internalType":"uint256"},{"name":"ancillaryData","type":"bytes","indexed":false,"internalType":"bytes"},{"name":"price","type":"int256","indexed":false,"internalType":"int256"},{"name":"payout","type":"uint256","indexed":false,"internalType":"uint256"}],"anonymous":false},{"type":"event","name":"Upgraded","inputs":[{"name":"implementation","type":"address","indexed":true,"internalType":"address"}],"anonymous":false},{"type":"error","name":"AccessControlBadConfirmation","inputs":[]},{"type":"error","name":"AccessControlEnforcedDefaultAdminDelay","inputs":[{"name":"schedule","type":"uint48","internalType":"uint48"}]},{"type":"error","name":"AccessControlEnforcedDefaultAdminRules","inputs":[]},{"type":"error","name":"AccessControlInvalidDefaultAdmin","inputs":[{"name":"defaultAdmin","type":"address","internalType":"address"}]},{"type":"error","name":"AccessControlUnauthorizedAccount","inputs":[{"name":"account","type":"address","internalType":"address"},{"name":"neededRole","type":"bytes32","internalType":"bytes32"}]},{"type":"error","name":"AddressEmptyCode","inputs":[{"name":"target","type":"address","internalType":"address"}]},{"type":"error","name":"AncillaryDataTooLong","inputs":[]},{"type":"error","name":"CannotProposeTooEarly","inputs":[]},{"type":"error","name":"DisputerAddressCannotBeZero","inputs":[]},{"type":"error","name":"ERC1967InvalidImplementation","inputs":[{"name":"implementation","type":"address","internalType":"address"}]},{"type":"error","name":"ERC1967NonPayable","inputs":[]},{"type":"error","name":"FailedCall","inputs":[]},{"type":"error","name":"InvalidInitialization","inputs":[]},{"type":"error","name":"LivenessCannotBeZero","inputs":[]},{"type":"error","name":"LivenessTooLarge","inputs":[]},{"type":"error","name":"NotInitializing","inputs":[]},{"type":"error","name":"ProposerAddressCannotBeZero","inputs":[]},{"type":"error","name":"ReentrancyGuardReentrantCall","inputs":[]},{"type":"error","name":"RequestNotSettleable","inputs":[]},{"type":"error","name":"RequestStateNotInvalid","inputs":[]},{"type":"error","name":"RequestStateNotProposed","inputs":[]},{"type":"error","name":"RequestStateNotRequested","inputs":[]},{"type":"error","name":"SafeCastOverflowedUintDowncast","inputs":[{"name":"bits","type":"uint8","internalType":"uint8"},{"name":"value","type":"uint256","internalType":"uint256"}]},{"type":"error","name":"SafeERC20FailedOperation","inputs":[{"name":"token","type":"address","internalType":"address"}]},{"type":"error","name":"TimestampInFuture","inputs":[]},{"type":"error","name":"UUPSUnauthorizedCallContext","inputs":[]},{"type":"error","name":"UUPSUnsupportedProxiableUUID","inputs":[{"name":"slot","type":"bytes32","internalType":"bytes32"}]},{"type":"error","name":"UnsupportedCurrency","inputs":[]},{"type":"error","name":"UnsupportedIdentifier","inputs":[]}],"userdoc":{},"devdoc":{},"storageLayout":{"storage":[{"astId":11412,"contract":"src/optimistic-oracle-v2/implementation/OptimisticOracleV2.sol:OptimisticOracleV2","label":"requests","offset":0,"slot":"0","type":"t_mapping(t_bytes32,t_struct(Request)11388_storage)"},{"astId":11639,"contract":"src/optimistic-oracle-v2/implementation/OptimisticOracleV2.sol:OptimisticOracleV2","label":"__gap","offset":0,"slot":"1","type":"t_array(t_uint256)49_storage"},{"astId":8163,"contract":"src/optimistic-oracle-v2/implementation/OptimisticOracleV2.sol:OptimisticOracleV2","label":"_notEntered","offset":0,"slot":"50","type":"t_bool"},{"astId":8243,"contract":"src/optimistic-oracle-v2/implementation/OptimisticOracleV2.sol:OptimisticOracleV2","label":"__gap","offset":0,"slot":"51","type":"t_array(t_uint256)49_storage"},{"astId":9436,"contract":"src/optimistic-oracle-v2/implementation/OptimisticOracleV2.sol:OptimisticOracleV2","label":"finder","offset":0,"slot":"100","type":"t_contract(FinderInterface)7719"},{"astId":9439,"contract":"src/optimistic-oracle-v2/implementation/OptimisticOracleV2.sol:OptimisticOracleV2","label":"defaultLiveness","offset":0,"slot":"101","type":"t_uint256"},{"astId":11126,"contract":"src/optimistic-oracle-v2/implementation/OptimisticOracleV2.sol:OptimisticOracleV2","label":"__gap","offset":0,"slot":"102","type":"t_array(t_uint256)998_storage"}],"types":{"t_address":{"encoding":"inplace","label":"address","numberOfBytes":"20"},"t_array(t_uint256)49_storage":{"encoding":"inplace","label":"uint256[49]","numberOfBytes":"1568","base":"t_uint256"},"t_array(t_uint256)998_storage":{"encoding":"inplace","label":"uint256[998]","numberOfBytes":"31936","base":"t_uint256"},"t_bool":{"encoding":"inplace","label":"bool","numberOfBytes":"1"},"t_bytes32":{"encoding":"inplace","label":"bytes32","numberOfBytes":"32"},"t_contract(FinderInterface)7719":{"encoding":"inplace","label":"contract FinderInterface","numberOfBytes":"20"},"t_contract(IERC20)2591":{"encoding":"inplace","label":"contract IERC20","numberOfBytes":"20"},"t_int256":{"encoding":"inplace","label":"int256","numberOfBytes":"32"},"t_mapping(t_bytes32,t_struct(Request)11388_storage)":{"encoding":"mapping","key":"t_bytes32","label":"mapping(bytes32 => struct OptimisticOracleV2Interface.Request)","numberOfBytes":"32","value":"t_struct(Request)11388_storage"},"t_struct(Request)11388_storage":{"encoding":"inplace","label":"struct OptimisticOracleV2Interface.Request","numberOfBytes":"352","members":[{"astId":11367,"contract":"src/optimistic-oracle-v2/implementation/OptimisticOracleV2.sol:OptimisticOracleV2","label":"proposer","offset":0,"slot":"0","type":"t_address"},{"astId":11369,"contract":"src/optimistic-oracle-v2/implementation/OptimisticOracleV2.sol:OptimisticOracleV2","label":"disputer","offset":0,"slot":"1","type":"t_address"},{"astId":11372,"contract":"src/optimistic-oracle-v2/implementation/OptimisticOracleV2.sol:OptimisticOracleV2","label":"currency","offset":0,"slot":"2","type":"t_contract(IERC20)2591"},{"astId":11374,"contract":"src/optimistic-oracle-v2/implementation/OptimisticOracleV2.sol:OptimisticOracleV2","label":"settled","offset":20,"slot":"2","type":"t_bool"},{"astId":11377,"contract":"src/optimistic-oracle-v2/implementation/OptimisticOracleV2.sol:OptimisticOracleV2","label":"requestSettings","offset":0,"slot":"3","type":"t_struct(RequestSettings)11365_storage"},{"astId":11379,"contract":"src/optimistic-oracle-v2/implementation/OptimisticOracleV2.sol:OptimisticOracleV2","label":"proposedPrice","offset":0,"slot":"6","type":"t_int256"},{"astId":11381,"contract":"src/optimistic-oracle-v2/implementation/OptimisticOracleV2.sol:OptimisticOracleV2","label":"resolvedPrice","offset":0,"slot":"7","type":"t_int256"},{"astId":11383,"contract":"src/optimistic-oracle-v2/implementation/OptimisticOracleV2.sol:OptimisticOracleV2","label":"expirationTime","offset":0,"slot":"8","type":"t_uint256"},{"astId":11385,"contract":"src/optimistic-oracle-v2/implementation/OptimisticOracleV2.sol:OptimisticOracleV2","label":"reward","offset":0,"slot":"9","type":"t_uint256"},{"astId":11387,"contract":"src/optimistic-oracle-v2/implementation/OptimisticOracleV2.sol:OptimisticOracleV2","label":"finalFee","offset":0,"slot":"10","type":"t_uint256"}]},"t_struct(RequestSettings)11365_storage":{"encoding":"inplace","label":"struct OptimisticOracleV2Interface.RequestSettings","numberOfBytes":"96","members":[{"astId":11352,"contract":"src/optimistic-oracle-v2/implementation/OptimisticOracleV2.sol:OptimisticOracleV2","label":"eventBased","offset":0,"slot":"0","type":"t_bool"},{"astId":11354,"contract":"src/optimistic-oracle-v2/implementation/OptimisticOracleV2.sol:OptimisticOracleV2","label":"refundOnDispute","offset":1,"slot":"0","type":"t_bool"},{"astId":11356,"contract":"src/optimistic-oracle-v2/implementation/OptimisticOracleV2.sol:OptimisticOracleV2","label":"callbackOnPriceProposed","offset":2,"slot":"0","type":"t_bool"},{"astId":11358,"contract":"src/optimistic-oracle-v2/implementation/OptimisticOracleV2.sol:OptimisticOracleV2","label":"callbackOnPriceDisputed","offset":3,"slot":"0","type":"t_bool"},{"astId":11360,"contract":"src/optimistic-oracle-v2/implementation/OptimisticOracleV2.sol:OptimisticOracleV2","label":"callbackOnPriceSettled","offset":4,"slot":"0","type":"t_bool"},{"astId":11362,"contract":"src/optimistic-oracle-v2/implementation/OptimisticOracleV2.sol:OptimisticOracleV2","label":"bond","offset":0,"slot":"1","type":"t_uint256"},{"astId":11364,"contract":"src/optimistic-oracle-v2/implementation/OptimisticOracleV2.sol:OptimisticOracleV2","label":"customLiveness","offset":0,"slot":"2","type":"t_uint256"}]},"t_uint256":{"encoding":"inplace","label":"uint256","numberOfBytes":"32"}}},"evm":{"bytecode":{"object":"60a060405230608052348015610013575f5ffd5b5061001c610021565b6100d3565b7ff0c57e16840df040f15088dc2f81fe391c3923bec73e23a9662efc9c229c6a00805468010000000000000000900460ff16156100715760405163f92ee8a960e01b815260040160405180910390fd5b80546001600160401b03908116146100d05780546001600160401b0319166001600160401b0390811782556040519081527fc7f505b2f371ae2175ee4913f4499e1f2633a7b5936321eed1cdaeb6115181d29060200160405180910390a15b50565b608051613ee56100f95f395f818161215c0152818161218501526122c50152613ee55ff3fe608060405260043610610275575f3560e01c806391f58dcb1161014a578063ba4b930c116100be578063d547741f11610078578063d547741f14610841578063d602b9fd14610860578063f327b07514610874578063fba7f1e314610893578063fe4e1983146108b2578063ff8c1a8c146108c7575f5ffd5b8063ba4b930c1461077f578063bc58ccaa146107ab578063c371dda7146107ca578063cc8463c8146107df578063cefc1429146107f3578063cf6eefb714610807575f5ffd5b8063ad3cb1cc1161010f578063ad3cb1cc146106a7578063ad5a755a146106e4578063af5d2f3914610703578063b4988fd014610722578063b8b4f90814610741578063b9a3c84c14610760575f5ffd5b806391f58dcb1461052c5780639d8669851461054b578063a1eda53c14610648578063a217fddf146104fa578063a9904f9b1461067b575f5ffd5b80634f1ef286116101ec57806376c7823f116101a657806376c7823f1461047c5780637c82288f1461049b57806384ef8ffc146104ba5780638da5cb5b146104e65780638ffc2120146104fa57806391d148541461050d575f5ffd5b80634f1ef286146103d957806352d1902d146103ec57806353b59239146104005780635e9a79a91461041f578063634e93da1461043e578063649a5ec71461045d575f5ffd5b8063248a9ca31161023d578063248a9ca31461033757806329cb924d146103565780632f2ff15d1461036857806336568abe14610387578063473c45fe146103a65780634ccb56f5146103c5575f5ffd5b806301ffc9a714610279578063022d63fb146102ad5780630aa6220b146102d557806311df92f1146102eb578063120698af14610318575b5f5ffd5b348015610284575f5ffd5b506102986102933660046133f2565b6108de565b60405190151581526020015b60405180910390f35b3480156102b8575f5ffd5b50620697805b60405165ffffffffffff90911681526020016102a4565b3480156102e0575f5ffd5b506102e9610908565b005b3480156102f6575f5ffd5b5061030a6103053660046134ca565b61091d565b6040519081526020016102a4565b348015610323575f5ffd5b506102e961033236600461352f565b610dc1565b348015610342575f5ffd5b5061030a61035136600461357a565b610e39565b348015610361575f5ffd5b504261030a565b348015610373575f5ffd5b506102e9610382366004613591565b610e59565b348015610392575f5ffd5b506102e96103a1366004613591565b610e85565b3480156103b1575f5ffd5b506102e96103c03660046135bf565b610f47565b3480156103d0575f5ffd5b5061030a610fbc565b6102e96103e7366004613612565b610fcc565b3480156103f7575f5ffd5b5061030a610fe7565b34801561040b575f5ffd5b5061030a61041a36600461352f565b611002565b34801561042a575f5ffd5b5061030a61043936600461365e565b611066565b348015610449575f5ffd5b506102e96104583660046136bc565b611095565b348015610468575f5ffd5b506102e96104773660046136d7565b6110a8565b348015610487575f5ffd5b5061030a6104963660046136fc565b6110bb565b3480156104a6575f5ffd5b5061030a6104b536600461376c565b611423565b3480156104c5575f5ffd5b506104ce61165c565b6040516001600160a01b0390911681526020016102a4565b3480156104f1575f5ffd5b506104ce611677565b348015610505575f5ffd5b5061030a5f81565b348015610518575f5ffd5b50610298610527366004613591565b611685565b348015610537575f5ffd5b506102e961054636600461352f565b6116bb565b348015610556575f5ffd5b5061063261056536600461357a565b5f6020818152918152604090819020805460018201546002830154845160e081018652600385015460ff8082161515835261010082048116151598830198909852620100008104881615159682019690965263010000008604871615156060820152640100000000909504861615156080860152600484015460a0860152600584015460c08601526006840154600785015460088601546009870154600a909701546001600160a01b03968716999587169896851697600160a01b9095049095169594929391929091908a565b6040516102a49a99989796959493929190613834565b348015610653575f5ffd5b5061065c611737565b6040805165ffffffffffff9384168152929091166020830152016102a4565b348015610686575f5ffd5b5061069a61069536600461365e565b6117a6565b6040516102a4919061389b565b3480156106b2575f5ffd5b506106d7604051806040016040528060058152602001640352e302e360dc1b81525081565b6040516102a49190613976565b3480156106ef575f5ffd5b5061030a6106fe3660046135bf565b611953565b34801561070e575f5ffd5b506106d761071d366004613988565b6119d2565b34801561072d575f5ffd5b506102e961073c3660046139cb565b6119de565b34801561074c575f5ffd5b5061030a61075b366004613a0a565b611ad9565b34801561076b575f5ffd5b506064546104ce906001600160a01b031681565b34801561078a575f5ffd5b5061079e61079936600461365e565b611ae8565b6040516102a49190613a83565b3480156107b6575f5ffd5b506102986107c536600461365e565b611afd565b3480156107d5575f5ffd5b5061030a61200081565b3480156107ea575f5ffd5b506102be611b6b565b3480156107fe575f5ffd5b506102e9611be6565b348015610812575f5ffd5b5061081b611c25565b604080516001600160a01b03909316835265ffffffffffff9091166020830152016102a4565b34801561084c575f5ffd5b506102e961085b366004613591565b611c52565b34801561086b575f5ffd5b506102e9611c7a565b34801561087f575f5ffd5b506102e961088e366004613ab6565b611c8c565b34801561089e575f5ffd5b5061030a6108ad36600461365e565b611d32565b3480156108bd575f5ffd5b5061030a60655481565b3480156108d2575f5ffd5b5061030a600160ff1b81565b5f6001600160e01b031982166318a4c3c360e11b1480610902575061090282611d40565b92915050565b5f61091281611d74565b61091a611d7e565b50565b5f610926611d8a565b61092e611dad565b5f61093b33888888611db9565b600681111561094c5761094c613a6f565b1461096a5760405163f757fcff60e01b815260040160405180910390fd5b610972611eeb565b6001600160a01b03166390978d1b876040518263ffffffff1660e01b815260040161099f91815260200190565b602060405180830381865afa1580156109ba573d5f5f3e3d5ffd5b505050506040513d601f19601f820116820180604052508101906109de9190613b39565b6109fb576040516356175d8f60e01b815260040160405180910390fd5b610a03611f6c565b604051631d1d5b3960e11b81526001600160a01b0385811660048301529190911690633a3ab67290602401602060405180830381865afa158015610a49573d5f5f3e3d5ffd5b505050506040513d601f19601f82011682018060405250810190610a6d9190613b39565b610a8a57604051631131fa7160e11b815260040160405180910390fd5b42851115610aab576040516347860b9760e01b815260040160405180910390fd5b610ab86035612000613b68565b84511115610ad957604051630a56acd960e01b815260040160405180910390fd5b5f610ae2611fb2565b604051635b97aadd60e01b81526001600160a01b0386811660048301529190911690635b97aadd90602401602060405180830381865afa158015610b28573d5f5f3e3d5ffd5b505050506040513d601f19601f82011682018060405250810190610b4c9190613b7b565b5f015190506040518061014001604052805f6001600160a01b031681526020015f6001600160a01b03168152602001856001600160a01b031681526020015f151581526020016040518060e001604052805f151581526020015f151581526020015f151581526020015f151581526020015f151581526020018481526020015f81525081526020015f81526020015f81526020015f8152602001848152602001828152505f5f610bfe338b8b8b611fea565b815260208082019290925260409081015f20835181546001600160a01b03199081166001600160a01b039283161783558585015160018401805490921690831617905584830151600283018054606080890151939094166001600160a81b031990911617600160a01b9215159290920291909117905560808086015180516003850180549783015196830151948301519383015161ffff1990981691151561ff0019169190911761010096151587021763ffff00001916620100009415159490940263ff0000001916939093176301000000921515929092029190911764ff0000000019166401000000009515159590950294909417905560a080840151600483015560c0938401516005830155840151600682015591830151600783015560e08301516008830155820151600982015561012090910151600a909101558215610d5757610d576001600160a01b038516333086612022565b336001600160a01b03167ff1679315ff325c257a944e0ca1bfe7b26616039e9511f9610d4ba3eca851027b888888888887604051610d9a96959493929190613bbc565b60405180910390a2610dad816002613c01565b915050610db8612089565b95945050505050565b610dc9611d8a565b610dd1611dad565b6001610ddf33858585611db9565b6006811115610df057610df0613a6f565b14610e0e57604051633a4e124d60e11b815260040160405180910390fd5b5f610e1b33858585612098565b600301805461ffff191661010117905550610e34612089565b505050565b5f9081525f516020613e705f395f51905f52602052604090206001015490565b81610e7757604051631fe1e13d60e11b815260040160405180910390fd5b610e8182826120be565b5050565b5f516020613e505f395f51905f5282158015610eb95750610ea461165c565b6001600160a01b0316826001600160a01b0316145b15610f3d575f5f610ec8611c25565b90925090506001600160a01b038216151580610eea575065ffffffffffff8116155b80610efd57504265ffffffffffff821610155b15610f2a576040516319ca5ebb60e01b815265ffffffffffff821660048201526024015b60405180910390fd5b5050805465ffffffffffff60a01b191681555b610e3483836120da565b610f4f611d8a565b610f57611dad565b6001610f6533868686611db9565b6006811115610f7657610f76613a6f565b14610f9457604051633a4e124d60e11b815260040160405180910390fd5b610f9d8161210d565b80610faa33868686612098565b60050155610fb6612089565b50505050565b610fc96035612000613b68565b81565b610fd4612151565b610fdd826121f5565b610e8182826121fe565b5f610ff06122ba565b505f516020613e305f395f51905f5290565b5f61100b611d8a565b611013611dad565b600661102133868686611db9565b600681111561103257611032613a6f565b146110455761104333858585612303565b505b61105133858585612098565b60070154905061105f612089565b9392505050565b5f61106f611d8a565b611077611dad565b61108385858585612303565b905061108d612089565b949350505050565b5f61109f81611d74565b610e81826125fc565b5f6110b281611d74565b610e818261266e565b5f6110c4611d8a565b6110cc611dad565b6001600160a01b0386166110f35760405163bef5ceeb60e01b815260040160405180910390fd5b600261110186868686611db9565b600681111561111257611112613a6f565b1461113057604051631bc1990760e31b815260040160405180910390fd5b5f61113d86868686612098565b6001810180546001600160a01b0319166001600160a01b038a16179055600a8101546004820154919250906111728282613c18565b93508315611194576002830154611194906001600160a01b0316333087612022565b5f61119d611fb2565b90505f6111a9856126dd565b6111b39085613c18565b9050801561124b5760028501546111d4906001600160a01b031683836126f0565b6111dc611fb2565b600286015460408051602081018252848152905163432ce91960e11b81526001600160a01b03928316600482015290516024820152911690638659d232906044015f604051808303815f87803b158015611234575f5ffd5b505af1158015611246573d5f5f3e3d5ffd5b505050505b611253612777565b6001600160a01b031663216666a48a61126c888c6127b0565b6112768b8f6127fb565b6040518463ffffffff1660e01b815260040161129493929190613c2b565b5f604051808303815f87803b1580156112ab575f5ffd5b505af11580156112bd573d5f5f3e3d5ffd5b50505060098601545f9150158015906112df57506003860154610100900460ff165b1561130857506009850180545f9091556002860154611308906001600160a01b03168c8361282b565b8b6001600160a01b0316865f015f9054906101000a90046001600160a01b03166001600160a01b03168c6001600160a01b03167f5165909c3d1c01c5d1e121ac6f6d01dda1ba24bc9e1f975b5a375339c15be7f38d8d8d8c600601546040516113749493929190613c49565b60405180910390a4611384612089565b6001600160a01b038b163b151580156113a8575060038601546301000000900460ff165b1561140d576040516306c791b960e11b81526001600160a01b038c1690630d8f2372906113df908d908d908d908790600401613c49565b5f604051808303815f87803b1580156113f6575f5ffd5b505af1158015611408573d5f5f3e3d5ffd5b505050505b611415611dad565b505050505050610db8612089565b5f61142c611d8a565b611434611dad565b6001600160a01b03871661145b5760405163062a0f5b60e21b815260040160405180910390fd5b600161146987878787611db9565b600681111561147a5761147a613a6f565b1461149857604051633a4e124d60e11b815260040160405180910390fd5b5f6114a587878787612098565b600381015490915060ff16156114d957600160ff1b83036114d95760405163cad802eb60e01b815260040160405180910390fd5b80546001600160a01b0319166001600160a01b0389161781556006810183905560058101545f0361150c57606554611512565b60058101545b61151c9042613c18565b6008820155600a81015460048201546115359190613c18565b91508115611557576002810154611557906001600160a01b0316333085612022565b600881015460028201546040516001600160a01b038b8116938b8216937f6e51dd00371aabffa82cd401592f76ed51e98a9ea4b58751c70463a2c78b5ca1936115ab938d938d938d938d9390911690613c78565b60405180910390a36115bb612089565b6001600160a01b0387163b151580156115de5750600381015462010000900460ff165b1561164157604051639c2fd1df60e01b81526001600160a01b03881690639c2fd1df9061161390899089908990600401613c2b565b5f604051808303815f87803b15801561162a575f5ffd5b505af115801561163c573d5f5f3e3d5ffd5b505050505b611649611dad565b50611652612089565b9695505050505050565b5f516020613e905f395f51905f52546001600160a01b031690565b5f61168061165c565b905090565b5f9182525f516020613e705f395f51905f52602090815260408084206001600160a01b0393909316845291905290205460ff1690565b6116c3611d8a565b6116cb611dad565b60016116d933858585611db9565b60068111156116ea576116ea613a6f565b1461170857604051633a4e124d60e11b815260040160405180910390fd5b600161171633858585612098565b60030180549115156101000261ff0019909216919091179055610e34612089565b5f516020613e905f395f51905f52545f90600160d01b900465ffffffffffff165f516020613e505f395f51905f52811580159061177c57504265ffffffffffff831610155b611787575f5f61179d565b6001810154600160a01b900465ffffffffffff16825b92509250509091565b61182c60408051610140810182525f80825260208083018290528284018290526060808401839052845160e081018652838152918201839052938101829052928301819052608083810182905260a0840182905260c084019190915290919082019081526020015f81526020015f81526020015f81526020015f81526020015f81525090565b611834611d8a565b61184085858585612098565b604080516101408101825282546001600160a01b0390811682526001840154811660208084019190915260028501549182168385015260ff600160a01b90920482161515606080850191909152845160e08082018752600388015480861615158352610100808204871615159584019590955262010000810486161515978301979097526301000000870485161515928201929092526401000000009095049092161515608085810191909152600486015460a080870191909152600587015460c08088019190915291850195909552600686015494840194909452600785015493830193909352600884015490820152600983015491810191909152600a909101546101208201529050949350505050565b5f61195c611d8a565b611964611dad565b600161197233878787611db9565b600681111561198357611983613a6f565b146119a157604051633a4e124d60e11b815260040160405180910390fd5b5f6119ae33878787612098565b60048101849055600a8101549091506119c79084613c18565b91505061108d612089565b606061105f83836127fb565b5f6119e761285c565b805490915060ff600160401b82041615906001600160401b03165f81158015611a0d5750825b90505f826001600160401b03166001148015611a285750303b155b905081158015611a36575080155b15611a545760405163f92ee8a960e01b815260040160405180910390fd5b845467ffffffffffffffff191660011785558315611a7e57845460ff60401b1916600160401b1785555b611a89888888612884565b8315611acf57845460ff60401b19168555604051600181527fc7f505b2f371ae2175ee4913f4499e1f2633a7b5936321eed1cdaeb6115181d29060200160405180910390a15b5050505050505050565b5f611652338787878787611423565b5f611af1611d8a565b610db885858585611db9565b5f611b06611d8a565b5f611b1386868686611db9565b90506006816006811115611b2957611b29613a6f565b1480611b4657506005816006811115611b4457611b44613a6f565b145b8061165257506003816006811115611b6057611b60613a6f565b149695505050505050565b5f516020613e905f395f51905f52545f905f516020613e505f395f51905f5290600160d01b900465ffffffffffff168015801590611bb057504265ffffffffffff8216105b611bca578154600160d01b900465ffffffffffff16611bdf565b6001820154600160a01b900465ffffffffffff165b9250505090565b5f611bef611c25565b509050336001600160a01b03821614611c1d57604051636116401160e11b8152336004820152602401610f21565b61091a6128b3565b5f516020613e505f395f51905f52546001600160a01b03811691600160a01b90910465ffffffffffff1690565b81611c7057604051631fe1e13d60e11b815260040160405180910390fd5b610e81828261294c565b5f611c8481611d74565b61091a612968565b611c94611d8a565b611c9c611dad565b6001611caa33888888611db9565b6006811115611cbb57611cbb613a6f565b14611cd957604051633a4e124d60e11b815260040160405180910390fd5b5f611ce633888888612098565b600301805463ffff00001916620100008615150263ff0000001916176301000000851515021764ff0000000019166401000000008415150217905550611d2a612089565b505050505050565b5f610db833868686866110bb565b5f6001600160e01b03198216637965db0b60e01b148061090257506301ffc9a760e01b6001600160e01b0319831614610902565b61091a8133612972565b611d885f5f6129ab565b565b60325460ff16611d8857604051633ee5aeb560e01b815260040160405180910390fd5b6032805460ff19169055565b5f5f611dc786868686612098565b60028101549091506001600160a01b0316611de5575f91505061108d565b80546001600160a01b0316611dfe57600191505061108d565b6002810154600160a01b900460ff1615611e1c57600691505061108d565b60018101546001600160a01b0316611e4c574281600801541115611e41576002611e44565b60035b91505061108d565b611e54612777565b6001600160a01b031663b551cd5086611e6d84886127b0565b611e77878b6127fb565b6040518463ffffffff1660e01b8152600401611e9593929190613c2b565b602060405180830381865afa158015611eb0573d5f5f3e3d5ffd5b505050506040513d601f19601f82011682018060405250810190611ed49190613b39565b611edf576004611652565b50600595945050505050565b6064546040516302abf57960e61b8152721259195b9d1a599a595c95da1a5d195b1a5cdd606a1b60048201525f916001600160a01b03169063aafd5e40906024015b602060405180830381865afa158015611f48573d5f5f3e3d5ffd5b505050506040513d601f19601f820116820180604052508101906116809190613cbd565b6064546040516302abf57960e61b81527210dbdb1b185d195c985b15da1a5d195b1a5cdd606a1b60048201525f916001600160a01b03169063aafd5e4090602401611f2d565b6064546040516302abf57960e61b81526453746f726560d81b60048201525f916001600160a01b03169063aafd5e4090602401611f2d565b5f848484846040516020016120029493929190613cef565b604051602081830303815290604052805190602001209050949350505050565b6040516001600160a01b038481166024830152838116604483015260648201839052610fb69186918216906323b872dd906084015b604051602081830303815290604052915060e01b6020820180516001600160e01b038381831617835250505050612a83565b6032805460ff19166001179055565b5f5f5f6120a787878787611fea565b81526020019081526020015f209050949350505050565b6120c782610e39565b6120d081611d74565b610fb68383612aef565b6001600160a01b03811633146121035760405163334bd91960e11b815260040160405180910390fd5b610e348282612b5b565b63bb74480081106121315760405163cb40339f60e01b815260040160405180910390fd5b5f811161091a5760405163fa050ec160e01b815260040160405180910390fd5b306001600160a01b037f00000000000000000000000000000000000000000000000000000000000000001614806121d757507f00000000000000000000000000000000000000000000000000000000000000006001600160a01b03166121cb5f516020613e305f395f51905f52546001600160a01b031690565b6001600160a01b031614155b15611d885760405163703e46dd60e11b815260040160405180910390fd5b61091a5f611d74565b816001600160a01b03166352d1902d6040518163ffffffff1660e01b8152600401602060405180830381865afa925050508015612258575060408051601f3d908101601f1916820190925261225591810190613d1e565b60015b61228057604051634c9c8ce360e01b81526001600160a01b0383166004820152602401610f21565b5f516020613e305f395f51905f5281146122b057604051632a87526960e21b815260048101829052602401610f21565b610e348383612bb2565b306001600160a01b037f00000000000000000000000000000000000000000000000000000000000000001614611d885760405163703e46dd60e11b815260040160405180910390fd5b5f5f61231186868686611db9565b90505f61232087878787612098565b60028101805460ff60a01b1916600160a01b1790559050600382600681111561234b5761234b613a6f565b036123a357600681015460078201556009810154600a82015460048301546123739190613c18565b61237d9190613c18565b8154600283015491945061239e916001600160a01b0390811691168561282b565b6124f8565b60058260068111156123b7576123b7613a6f565b036124df576123c4612777565b6001600160a01b031663719c6d56876123dd84896127b0565b6123e7888c6127fb565b6040518463ffffffff1660e01b815260040161240593929190613c2b565b602060405180830381865afa158015612420573d5f5f3e3d5ffd5b505050506040513d601f19601f820116820180604052508101906124449190613d1e565b6007820181905560068201546004830154911415905f612463846126dd565b61246d9083613b68565b9050836009015484600a015482846124859190613c18565b61248f9190613c18565b6124999190613c18565b95506124d7836124b35784546001600160a01b03166124c2565b60018501546001600160a01b03165b60028601546001600160a01b0316908861282b565b5050506124f8565b604051639c71cb8360e01b815260040160405180910390fd5b6001810154815460078301546040516001600160a01b0393841693928316928b16917f3f384afb4bd9f0aef0298c80399950011420eb33b0e1a750b20966270247b9a09161254d918c918c918c918c90613d35565b60405180910390a461255d612089565b6001600160a01b0387163b1515801561258257506003810154640100000000900460ff165b156125ea5760078101546040516304cc1fd560e01b81526001600160a01b038916916304cc1fd5916125bc918a918a918a91600401613c49565b5f604051808303815f87803b1580156125d3575f5ffd5b505af11580156125e5573d5f5f3e3d5ffd5b505050505b6125f2611dad565b5050949350505050565b5f612605611b6b565b61260e42612c07565b6126189190613d67565b90506126248282612c3d565b60405165ffffffffffff821681526001600160a01b038316907f3377dc44241e779dd06afab5b788a35ca5f3b778836e2990bdb26a2a4b2e5ed69060200160405180910390a25050565b5f61267882612cc7565b61268142612c07565b61268b9190613d67565b905061269782826129ab565b6040805165ffffffffffff8085168252831660208201527ff1038c18cf84a56e432fdbfaf746924b7ea511dfe03a6506a0ceba4888788d9b910160405180910390a15050565b60048101545f9061090290600290613d99565b604051636eb1769f60e11b81523060048201526001600160a01b0383811660248301525f919085169063dd62ed3e90604401602060405180830381865afa15801561273d573d5f5f3e3d5ffd5b505050506040513d601f19601f820116820180604052508101906127619190613d1e565b9050610fb684846127728585613c18565b612d0e565b6064546040516302abf57960e61b8152654f7261636c6560d01b60048201525f916001600160a01b03169063aafd5e4090602401611f2d565b60038201545f9060ff16156127f45760058301545f9081036127d4576065546127da565b60058401545b90508084600801546127ec9190613b68565b915050610902565b5080610902565b606061105f836040518060400160405280600b81526020016a37b7a932b8bab2b9ba32b960a91b81525084612d9d565b6040516001600160a01b03838116602483015260448201839052610e3491859182169063a9059cbb90606401612057565b5f807ff0c57e16840df040f15088dc2f81fe391c3923bec73e23a9662efc9c229c6a00610902565b61288c612de2565b612894612e07565b6128a16203f48082612e0f565b6128a9612e21565b610e348383612e29565b5f516020613e505f395f51905f525f806128cb611c25565b915091506128e08165ffffffffffff16151590565b15806128f457504265ffffffffffff821610155b1561291c576040516319ca5ebb60e01b815265ffffffffffff82166004820152602401610f21565b61292d5f61292861165c565b612b5b565b506129385f83612aef565b505081546001600160d01b03191690915550565b61295582610e39565b61295e81611d74565b610fb68383612b5b565b611d885f5f612c3d565b61297c8282611685565b610e815760405163e2517d3f60e01b81526001600160a01b038216600482015260248101839052604401610f21565b5f516020613e905f395f51905f52545f516020613e505f395f51905f5290600160d01b900465ffffffffffff168015612a45574265ffffffffffff82161015612a1c57600182015482546001600160d01b0316600160a01b90910465ffffffffffff16600160d01b02178255612a45565b6040517f2b1fa2edafe6f7b9e97c1a9e0c3660e645beb2dcaa2d45bdbf9beaf5472e1ec5905f90a15b5060010180546001600160a01b0316600160a01b65ffffffffffff948516026001600160d01b031617600160d01b9290931691909102919091179055565b5f5f60205f8451602086015f885af180612aa2576040513d5f823e3d81fd5b50505f513d91508115612ab9578060011415612ac6565b6001600160a01b0384163b155b15610fb657604051635274afe760e01b81526001600160a01b0385166004820152602401610f21565b5f5f516020613e505f395f51905f5283612b51575f612b0c61165c565b6001600160a01b031614612b3357604051631fe1e13d60e11b815260040160405180910390fd5b6001810180546001600160a01b0319166001600160a01b0385161790555b61108d8484612e5b565b5f5f516020613e505f395f51905f5283158015612b905750612b7b61165c565b6001600160a01b0316836001600160a01b0316145b15612ba8576001810180546001600160a01b03191690555b61108d8484612efc565b612bbb82612f75565b6040516001600160a01b038316907fbc7cd75a20ee27fd9adebab32041f755214dbc6bffa90cc0225b39da2e5c2d3b905f90a2805115612bff57610e348282612fd8565b610e81613041565b5f65ffffffffffff821115612c39576040516306dfcc6560e41b81526030600482015260248101839052604401610f21565b5090565b5f516020613e505f395f51905f525f612c54611c25565b835465ffffffffffff8616600160a01b026001600160d01b03199091166001600160a01b038816171784559150612c9490508165ffffffffffff16151590565b15610fb6576040517f8886ebfc4259abdbc16601dd8fb5678e54878f47b3c34836cfc51154a9605109905f90a150505050565b5f5f612cd1611b6b565b90508065ffffffffffff168365ffffffffffff1611612cf957612cf48382613db8565b61105f565b61105f65ffffffffffff841662069780613060565b604080516001600160a01b038416602482015260448082018490528251808303909101815260649091019091526020810180516001600160e01b031663095ea7b360e01b179052612d5f848261306f565b610fb6576040516001600160a01b0384811660248301525f6044830152612d9391869182169063095ea7b390606401612057565b610fb68482612a83565b60605f612daa85856130b4565b90508481612db7856130f6565b604051602001612dc993929190613dd6565b6040516020818303038152906040529150509392505050565b612dea613163565b611d8857604051631afcd79f60e31b815260040160405180910390fd5b611d88612de2565b612e17612de2565b610e81828261317c565b612089612de2565b612e31612de2565b606480546001600160a01b0319166001600160a01b038316179055612e558261210d565b50606555565b5f5f516020613e705f395f51905f52612e748484611685565b612ef3575f848152602082815260408083206001600160a01b03871684529091529020805460ff19166001179055612ea93390565b6001600160a01b0316836001600160a01b0316857f2f8788117e7eff1d82e926ec794901d17c78024a50270940304540a733656f0d60405160405180910390a46001915050610902565b5f915050610902565b5f5f516020613e705f395f51905f52612f158484611685565b15612ef3575f848152602082815260408083206001600160a01b0387168085529252808320805460ff1916905551339287917ff6391f5c32d9c69d2a47ea670b442974b53935d1edc7fd64eb21e047a839171b9190a46001915050610902565b806001600160a01b03163b5f03612faa57604051634c9c8ce360e01b81526001600160a01b0382166004820152602401610f21565b5f516020613e305f395f51905f5280546001600160a01b0319166001600160a01b0392909216919091179055565b60605f5f846001600160a01b031684604051612ff49190613df3565b5f60405180830381855af49150503d805f811461302c576040519150601f19603f3d011682016040523d82523d5f602084013e613031565b606091505b5091509150610db88583836131e2565b3415611d885760405163b398979f60e01b815260040160405180910390fd5b5f82821882841002821861105f565b5f5f5f5f60205f8651602088015f8a5af192503d91505f519050828015611652575081156130a05780600114611652565b50505050506001600160a01b03163b151590565b8151606090156130e557816040516020016130cf9190613dfe565b6040516020818303038152906040529050610902565b816040516020016130cf9190613e24565b606061310e6001600160801b03602084901c16613239565b6131298360601b6bffffffffffffffffffffffff1916613239565b60405160200161314d9291909182526001600160c01b031916602082015260280190565b6040516020818303038152906040529050919050565b5f61316c61285c565b54600160401b900460ff16919050565b613184612de2565b5f516020613e505f395f51905f526001600160a01b0382166131bb57604051636116401160e11b81525f6004820152602401610f21565b80546001600160d01b0316600160d01b65ffffffffffff851602178155610fb65f83612aef565b6060826131f257612cf4826133ca565b815115801561320957506001600160a01b0384163b155b1561323257604051639996b31560e01b81526001600160a01b0385166004820152602401610f21565b508061105f565b5f5f825f1c9050806001600160801b0316905080600160401b02811777ffffffffffffffff0000000000000000ffffffffffffffff169050806401000000000281177bffffffff00000000ffffffff00000000ffffffff00000000ffffffff16905080620100000281177dffff0000ffff0000ffff0000ffff0000ffff0000ffff0000ffff0000ffff169050806101000281177eff00ff00ff00ff00ff00ff00ff00ff00ff00ff00ff00ff00ff00ff00ff00ff1690508060100281177f0f0f0f0f0f0f0f0f0f0f0f0f0f0f0f0f0f0f0f0f0f0f0f0f0f0f0f0f0f0f0f0f1690505f6008827f0808080808080808080808080808080808080808080808080808080808080808168161334c5761334c613d85565b0460047f040404040404040404040404040404040404040404040404040404040404040484160460027f020202020202020202020202020202020202020202020202020202020202020285160417166027029091017f3030303030303030303030303030303030303030303030303030303030303030019392505050565b8051156133d957805160208201fd5b60405163d6bda27560e01b815260040160405180910390fd5b5f60208284031215613402575f5ffd5b81356001600160e01b03198116811461105f575f5ffd5b634e487b7160e01b5f52604160045260245ffd5b5f82601f83011261343c575f5ffd5b81356001600160401b0381111561345557613455613419565b604051601f8201601f19908116603f011681016001600160401b038111828210171561348357613483613419565b60405281815283820160200185101561349a575f5ffd5b816020850160208301375f918101602001919091529392505050565b6001600160a01b038116811461091a575f5ffd5b5f5f5f5f5f60a086880312156134de575f5ffd5b853594506020860135935060408601356001600160401b03811115613501575f5ffd5b61350d8882890161342d565b935050606086013561351e816134b6565b949793965091946080013592915050565b5f5f5f60608486031215613541575f5ffd5b833592506020840135915060408401356001600160401b03811115613564575f5ffd5b6135708682870161342d565b9150509250925092565b5f6020828403121561358a575f5ffd5b5035919050565b5f5f604083850312156135a2575f5ffd5b8235915060208301356135b4816134b6565b809150509250929050565b5f5f5f5f608085870312156135d2575f5ffd5b843593506020850135925060408501356001600160401b038111156135f5575f5ffd5b6136018782880161342d565b949793965093946060013593505050565b5f5f60408385031215613623575f5ffd5b823561362e816134b6565b915060208301356001600160401b03811115613648575f5ffd5b6136548582860161342d565b9150509250929050565b5f5f5f5f60808587031215613671575f5ffd5b843561367c816134b6565b9350602085013592506040850135915060608501356001600160401b038111156136a4575f5ffd5b6136b08782880161342d565b91505092959194509250565b5f602082840312156136cc575f5ffd5b813561105f816134b6565b5f602082840312156136e7575f5ffd5b813565ffffffffffff8116811461105f575f5ffd5b5f5f5f5f5f60a08688031215613710575f5ffd5b853561371b816134b6565b9450602086013561372b816134b6565b9350604086013592506060860135915060808601356001600160401b03811115613753575f5ffd5b61375f8882890161342d565b9150509295509295909350565b5f5f5f5f5f5f60c08789031215613781575f5ffd5b863561378c816134b6565b9550602087013561379c816134b6565b9450604087013593506060870135925060808701356001600160401b038111156137c4575f5ffd5b6137d089828a0161342d565b9699959850939692959460a09093013593505050565b80511515825260208101511515602083015260408101511515604083015260608101511515606083015260808101511515608083015260a081015160a083015260c081015160c08301525050565b6001600160a01b038b811682528a81166020830152891660408201528715156060820152610200810161386a60808301896137e6565b6101608201969096526101808101949094526101a08401929092526101c08301526101e09091015295945050505050565b81516001600160a01b03168152610200810160208301516138c760208401826001600160a01b03169052565b5060408301516138e260408401826001600160a01b03169052565b5060608301516138f6606084018215159052565b50608083015161390960808401826137e6565b5060a083015161016083015260c083015161018083015260e08301516101a08301526101008301516101c0830152610120909201516101e09091015290565b5f81518084528060208401602086015e5f602082860101526020601f19601f83011685010191505092915050565b602081525f61105f6020830184613948565b5f5f60408385031215613999575f5ffd5b82356001600160401b038111156139ae575f5ffd5b6139ba8582860161342d565b92505060208301356135b4816134b6565b5f5f5f606084860312156139dd575f5ffd5b8335925060208401356139ef816134b6565b915060408401356139ff816134b6565b809150509250925092565b5f5f5f5f5f60a08688031215613a1e575f5ffd5b8535613a29816134b6565b9450602086013593506040860135925060608601356001600160401b03811115613a51575f5ffd5b613a5d8882890161342d565b95989497509295608001359392505050565b634e487b7160e01b5f52602160045260245ffd5b6020810160078310613aa357634e487b7160e01b5f52602160045260245ffd5b91905290565b801515811461091a575f5ffd5b5f5f5f5f5f5f60c08789031215613acb575f5ffd5b863595506020870135945060408701356001600160401b03811115613aee575f5ffd5b613afa89828a0161342d565b9450506060870135613b0b81613aa9565b92506080870135613b1b81613aa9565b915060a0870135613b2b81613aa9565b809150509295509295509295565b5f60208284031215613b49575f5ffd5b815161105f81613aa9565b634e487b7160e01b5f52601160045260245ffd5b8181038181111561090257610902613b54565b5f6020828403128015613b8c575f5ffd5b50604051602081016001600160401b0381118282101715613baf57613baf613419565b6040529151825250919050565b86815285602082015260c060408201525f613bda60c0830187613948565b6001600160a01b0395909516606083015250608081019290925260a0909101529392505050565b808202811582820484141761090257610902613b54565b8082018082111561090257610902613b54565b838152826020820152606060408201525f610db86060830184613948565b848152836020820152608060408201525f613c676080830185613948565b905082606083015295945050505050565b86815285602082015260c060408201525f613c9660c0830187613948565b60608301959095525060808101929092526001600160a01b031660a0909101529392505050565b5f60208284031215613ccd575f5ffd5b815161105f816134b6565b5f81518060208401855e5f93019283525090919050565b6bffffffffffffffffffffffff198560601b1681528360148201528260348201525f6116526054830184613cd8565b5f60208284031215613d2e575f5ffd5b5051919050565b85815284602082015260a060408201525f613d5360a0830186613948565b606083019490945250608001529392505050565b65ffffffffffff818116838216019081111561090257610902613b54565b634e487b7160e01b5f52601260045260245ffd5b5f82613db357634e487b7160e01b5f52601260045260245ffd5b500490565b65ffffffffffff828116828216039081111561090257610902613b54565b5f610db8613ded613de78488613cd8565b86613cd8565b84613cd8565b5f61105f8284613cd8565b600b60fa1b81525f613e136001830184613cd8565b601d60f91b81526001019392505050565b5f613e138284613cd856fe360894a13ba1a3210667c828492db98dca3e2076cc3735a920a3ca505d382bbceef3dac4538c82c8ace4063ab0acd2d15cdb5883aa1dff7c2673abb3d869840002dd7bc7dec4dceedda775e58dd541e08a116c6c53815c0bd028192f7b626800eef3dac4538c82c8ace4063ab0acd2d15cdb5883aa1dff7c2673abb3d8698401a26469706673582212207304c87cfaad9ea28e8837efe0f15ebf1a6da06e5a665d07ad032b100ff494b064736f6c634300081e0033","linkReferences":{}},"methodIdentifiers":{"DEFAULT_ADMIN_ROLE()":"a217fddf","OO_ANCILLARY_DATA_LIMIT()":"4ccb56f5","TOO_EARLY_RESPONSE()":"ff8c1a8c","UPGRADE_ADMIN_ROLE()":"8ffc2120","UPGRADE_INTERFACE_VERSION()":"ad3cb1cc","acceptDefaultAdminTransfer()":"cefc1429","ancillaryBytesLimit()":"c371dda7","beginDefaultAdminTransfer(address)":"634e93da","cancelDefaultAdminTransfer()":"d602b9fd","changeDefaultAdminDelay(uint48)":"649a5ec7","defaultAdmin()":"84ef8ffc","defaultAdminDelay()":"cc8463c8","defaultAdminDelayIncreaseWait()":"022d63fb","defaultLiveness()":"fe4e1983","disputePrice(address,bytes32,uint256,bytes)":"fba7f1e3","disputePriceFor(address,address,bytes32,uint256,bytes)":"76c7823f","finder()":"b9a3c84c","getCurrentTime()":"29cb924d","getRequest(address,bytes32,uint256,bytes)":"a9904f9b","getRoleAdmin(bytes32)":"248a9ca3","getState(address,bytes32,uint256,bytes)":"ba4b930c","grantRole(bytes32,address)":"2f2ff15d","hasPrice(address,bytes32,uint256,bytes)":"bc58ccaa","hasRole(bytes32,address)":"91d14854","initialize(uint256,address,address)":"b4988fd0","owner()":"8da5cb5b","pendingDefaultAdmin()":"cf6eefb7","pendingDefaultAdminDelay()":"a1eda53c","proposePrice(address,bytes32,uint256,bytes,int256)":"b8b4f908","proposePriceFor(address,address,bytes32,uint256,bytes,int256)":"7c82288f","proxiableUUID()":"52d1902d","renounceRole(bytes32,address)":"36568abe","requestPrice(bytes32,uint256,bytes,address,uint256)":"11df92f1","requests(bytes32)":"9d866985","revokeRole(bytes32,address)":"d547741f","rollbackDefaultAdminDelay()":"0aa6220b","setBond(bytes32,uint256,bytes,uint256)":"ad5a755a","setCallbacks(bytes32,uint256,bytes,bool,bool,bool)":"f327b075","setCustomLiveness(bytes32,uint256,bytes,uint256)":"473c45fe","setEventBased(bytes32,uint256,bytes)":"120698af","setRefundOnDispute(bytes32,uint256,bytes)":"91f58dcb","settle(address,bytes32,uint256,bytes)":"5e9a79a9","settleAndGetPrice(bytes32,uint256,bytes)":"53b59239","stampAncillaryData(bytes,address)":"af5d2f39","supportsInterface(bytes4)":"01ffc9a7","upgradeToAndCall(address,bytes)":"4f1ef286"}}}}}