{"lib/protocol/packages/core/contracts/data-verification-mechanism/implementation/Constants.sol":{"OptimisticOracleConstraints":{"abi":[{"type":"function","name":"ancillaryBytesLimit","inputs":[],"outputs":[{"name":"","type":"uint256","internalType":"uint256"}],"stateMutability":"view"}],"userdoc":{},"devdoc":{},"evm":{"bytecode":{"object":"60866032600b8282823980515f1a607314602657634e487b7160e01b5f525f60045260245ffd5b305f52607381538281f3fe73000000000000000000000000000000000000000030146080604052600436106032575f3560e01c8063c371dda7146036575b5f5ffd5b603e61200081565b60405190815260200160405180910390f3fea2646970667358221220507e0a39d6d1c5e7c8f9f4165fac927f7db2439f5566727b7c4e29c6ebd8da4664736f6c634300081e0033","linkReferences":{}},"methodIdentifiers":{"ancillaryBytesLimit()":"c371dda7"}}}}}