{"src/optimistic-oracle-v2/implementation/ManagedOptimisticOracleV2.sol":{"ManagedOptimisticOracleV2":{"abi":[{"type":"constructor","inputs":[],"stateMutability":"nonpayable"},{"type":"function","name":"CONFIG_ADMIN_ROLE","inputs":[],"outputs":[{"name":"","type":"bytes32","internalType":"bytes32"}],"stateMutability":"view"},{"type":"function","name":"DEFAULT_ADMIN_ROLE","inputs":[],"outputs":[{"name":"","type":"bytes32","internalType":"bytes32"}],"stateMutability":"view"},{"type":"function","name":"OO_ANCILLARY_DATA_LIMIT","inputs":[],"outputs":[{"name":"","type":"uint256","internalType":"uint256"}],"stateMutability":"view"},{"type":"function","name":"REQUEST_MANAGER_ROLE","inputs":[],"outputs":[{"name":"","type":"bytes32","internalType":"bytes32"}],"stateMutability":"view"},{"type":"function","name":"TOO_EARLY_RESPONSE","inputs":[],"outputs":[{"name":"","type":"int256","internalType":"int256"}],"stateMutability":"view"},{"type":"function","name":"UPGRADE_ADMIN_ROLE","inputs":[],"outputs":[{"name":"","type":"bytes32","internalType":"bytes32"}],"stateMutability":"view"},{"type":"function","name":"UPGRADE_INTERFACE_VERSION","inputs":[],"outputs":[{"name":"","type":"string","internalType":"string"}],"stateMutability":"view"},{"type":"function","name":"acceptDefaultAdminTransfer","inputs":[],"outputs":[],"stateMutability":"nonpayable"},{"type":"function","name":"addRequestManager","inputs":[{"name":"requestManager","type":"address","internalType":"address"}],"outputs":[],"stateMutability":"nonpayable"},{"type":"function","name":"allowedBondRanges","inputs":[{"name":"","type":"address","internalType":"contract IERC20"}],"outputs":[{"name":"minimumBond","type":"uint128","internalType":"uint128"},{"name":"maximumBond","type":"uint128","internalType":"uint128"}],"stateMutability":"view"},{"type":"function","name":"ancillaryBytesLimit","inputs":[],"outputs":[{"name":"","type":"uint256","internalType":"uint256"}],"stateMutability":"view"},{"type":"function","name":"beginDefaultAdminTransfer","inputs":[{"name":"newAdmin","type":"address","internalType":"address"}],"outputs":[],"stateMutability":"nonpayable"},{"type":"function","name":"cancelDefaultAdminTransfer","inputs":[],"outputs":[],"stateMutability":"nonpayable"},{"type":"function","name":"changeDefaultAdminDelay","inputs":[{"name":"newDelay","type":"uint48","internalType":"uint48"}],"outputs":[],"stateMutability":"nonpayable"},{"type":"function","name":"customBonds","inputs":[{"name":"","type":"bytes32","internalType":"bytes32"},{"name":"","type":"address","internalType":"contract IERC20"}],"outputs":[{"name":"amount","type":"uint256","internalType":"uint256"},{"name":"isSet","type":"bool","internalType":"bool"}],"stateMutability":"view"},{"type":"function","name":"customLivenessValues","inputs":[{"name":"","type":"bytes32","internalType":"bytes32"}],"outputs":[{"name":"liveness","type":"uint256","internalType":"uint256"},{"name":"isSet","type":"bool","internalType":"bool"}],"stateMutability":"view"},{"type":"function","name":"customProposerWhitelists","inputs":[{"name":"","type":"bytes32","internalType":"bytes32"}],"outputs":[{"name":"","type":"address","internalType":"contract AddressWhitelistInterface"}],"stateMutability":"view"},{"type":"function","name":"defaultAdmin","inputs":[],"outputs":[{"name":"","type":"address","internalType":"address"}],"stateMutability":"view"},{"type":"function","name":"defaultAdminDelay","inputs":[],"outputs":[{"name":"","type":"uint48","internalType":"uint48"}],"stateMutability":"view"},{"type":"function","name":"defaultAdminDelayIncreaseWait","inputs":[],"outputs":[{"name":"","type":"uint48","internalType":"uint48"}],"stateMutability":"view"},{"type":"function","name":"defaultLiveness","inputs":[],"outputs":[{"name":"","type":"uint256","internalType":"uint256"}],"stateMutability":"view"},{"type":"function","name":"defaultProposerWhitelist","inputs":[],"outputs":[{"name":"","type":"address","internalType":"contract AddressWhitelistInterface"}],"stateMutability":"view"},{"type":"function","name":"disputePrice","inputs":[{"name":"requester","type":"address","internalType":"address"},{"name":"identifier","type":"bytes32","internalType":"bytes32"},{"name":"timestamp","type":"uint256","internalType":"uint256"},{"name":"ancillaryData","type":"bytes","internalType":"bytes"}],"outputs":[{"name":"totalBond","type":"uint256","internalType":"uint256"}],"stateMutability":"nonpayable"},{"type":"function","name":"disputePriceFor","inputs":[{"name":"disputer","type":"address","internalType":"address"},{"name":"requester","type":"address","internalType":"address"},{"name":"identifier","type":"bytes32","internalType":"bytes32"},{"name":"timestamp","type":"uint256","internalType":"uint256"},{"name":"ancillaryData","type":"bytes","internalType":"bytes"}],"outputs":[{"name":"totalBond","type":"uint256","internalType":"uint256"}],"stateMutability":"nonpayable"},{"type":"function","name":"finder","inputs":[],"outputs":[{"name":"","type":"address","internalType":"contract FinderInterface"}],"stateMutability":"view"},{"type":"function","name":"getCurrentTime","inputs":[],"outputs":[{"name":"","type":"uint256","internalType":"uint256"}],"stateMutability":"view"},{"type":"function","name":"getCustomProposerWhitelist","inputs":[{"name":"requester","type":"address","internalType":"address"},{"name":"identifier","type":"bytes32","internalType":"bytes32"},{"name":"ancillaryData","type":"bytes","internalType":"bytes"}],"outputs":[{"name":"","type":"address","internalType":"contract AddressWhitelistInterface"}],"stateMutability":"view"},{"type":"function","name":"getManagedRequestId","inputs":[{"name":"requester","type":"address","internalType":"address"},{"name":"identifier","type":"bytes32","internalType":"bytes32"},{"name":"ancillaryData","type":"bytes","internalType":"bytes"}],"outputs":[{"name":"","type":"bytes32","internalType":"bytes32"}],"stateMutability":"pure"},{"type":"function","name":"getProposerWhitelistWithEnabledStatus","inputs":[{"name":"requester","type":"address","internalType":"address"},{"name":"identifier","type":"bytes32","internalType":"bytes32"},{"name":"ancillaryData","type":"bytes","internalType":"bytes"}],"outputs":[{"name":"allowedProposers","type":"address[]","internalType":"address[]"},{"name":"isEnabled","type":"bool","internalType":"bool"}],"stateMutability":"view"},{"type":"function","name":"getRequest","inputs":[{"name":"requester","type":"address","internalType":"address"},{"name":"identifier","type":"bytes32","internalType":"bytes32"},{"name":"timestamp","type":"uint256","internalType":"uint256"},{"name":"ancillaryData","type":"bytes","internalType":"bytes"}],"outputs":[{"name":"","type":"tuple","internalType":"struct OptimisticOracleV2Interface.Request","components":[{"name":"proposer","type":"address","internalType":"address"},{"name":"disputer","type":"address","internalType":"address"},{"name":"currency","type":"address","internalType":"contract IERC20"},{"name":"settled","type":"bool","internalType":"bool"},{"name":"requestSettings","type":"tuple","internalType":"struct OptimisticOracleV2Interface.RequestSettings","components":[{"name":"eventBased","type":"bool","internalType":"bool"},{"name":"refundOnDispute","type":"bool","internalType":"bool"},{"name":"callbackOnPriceProposed","type":"bool","internalType":"bool"},{"name":"callbackOnPriceDisputed","type":"bool","internalType":"bool"},{"name":"callbackOnPriceSettled","type":"bool","internalType":"bool"},{"name":"bond","type":"uint256","internalType":"uint256"},{"name":"customLiveness","type":"uint256","internalType":"uint256"}]},{"name":"proposedPrice","type":"int256","internalType":"int256"},{"name":"resolvedPrice","type":"int256","internalType":"int256"},{"name":"expirationTime","type":"uint256","internalType":"uint256"},{"name":"reward","type":"uint256","internalType":"uint256"},{"name":"finalFee","type":"uint256","internalType":"uint256"}]}],"stateMutability":"view"},{"type":"function","name":"getRoleAdmin","inputs":[{"name":"role","type":"bytes32","internalType":"bytes32"}],"outputs":[{"name":"","type":"bytes32","internalType":"bytes32"}],"stateMutability":"view"},{"type":"function","name":"getState","inputs":[{"name":"requester","type":"address","internalType":"address"},{"name":"identifier","type":"bytes32","internalType":"bytes32"},{"name":"timestamp","type":"uint256","internalType":"uint256"},{"name":"ancillaryData","type":"bytes","internalType":"bytes"}],"outputs":[{"name":"","type":"uint8","internalType":"enum OptimisticOracleV2Interface.State"}],"stateMutability":"view"},{"type":"function","name":"grantRole","inputs":[{"name":"role","type":"bytes32","internalType":"bytes32"},{"name":"account","type":"address","internalType":"address"}],"outputs":[],"stateMutability":"nonpayable"},{"type":"function","name":"hasPrice","inputs":[{"name":"requester","type":"address","internalType":"address"},{"name":"identifier","type":"bytes32","internalType":"bytes32"},{"name":"timestamp","type":"uint256","internalType":"uint256"},{"name":"ancillaryData","type":"bytes","internalType":"bytes"}],"outputs":[{"name":"","type":"bool","internalType":"bool"}],"stateMutability":"view"},{"type":"function","name":"hasRole","inputs":[{"name":"role","type":"bytes32","internalType":"bytes32"},{"name":"account","type":"address","internalType":"address"}],"outputs":[{"name":"","type":"bool","internalType":"bool"}],"stateMutability":"view"},{"type":"function","name":"initialize","inputs":[{"name":"_liveness","type":"uint256","internalType":"uint256"},{"name":"_finderAddress","type":"address","internalType":"address"},{"name":"upgradeAdmin","type":"address","internalType":"address"}],"outputs":[],"stateMutability":"nonpayable"},{"type":"function","name":"initialize","inputs":[{"name":"_defaultLiveness","type":"uint256","internalType":"uint256"},{"name":"_finderAddress","type":"address","internalType":"address"},{"name":"_defaultProposerWhitelist","type":"address","internalType":"address"},{"name":"_requesterWhitelist","type":"address","internalType":"address"},{"name":"_allowedBondRanges","type":"tuple[]","internalType":"struct ManagedOptimisticOracleV2.CurrencyBondRange[]","components":[{"name":"currency","type":"address","internalType":"contract IERC20"},{"name":"range","type":"tuple","internalType":"struct ManagedOptimisticOracleV2.BondRange","components":[{"name":"minimumBond","type":"uint128","internalType":"uint128"},{"name":"maximumBond","type":"uint128","internalType":"uint128"}]}]},{"name":"_minimumLiveness","type":"uint256","internalType":"uint256"},{"name":"configAdmin","type":"address","internalType":"address"},{"name":"upgradeAdmin","type":"address","internalType":"address"}],"outputs":[],"stateMutability":"nonpayable"},{"type":"function","name":"minimumLiveness","inputs":[],"outputs":[{"name":"","type":"uint256","internalType":"uint256"}],"stateMutability":"view"},{"type":"function","name":"multicall","inputs":[{"name":"data","type":"bytes[]","internalType":"bytes[]"}],"outputs":[{"name":"results","type":"bytes[]","internalType":"bytes[]"}],"stateMutability":"nonpayable"},{"type":"function","name":"owner","inputs":[],"outputs":[{"name":"","type":"address","internalType":"address"}],"stateMutability":"view"},{"type":"function","name":"pendingDefaultAdmin","inputs":[],"outputs":[{"name":"newAdmin","type":"address","internalType":"address"},{"name":"schedule","type":"uint48","internalType":"uint48"}],"stateMutability":"view"},{"type":"function","name":"pendingDefaultAdminDelay","inputs":[],"outputs":[{"name":"newDelay","type":"uint48","internalType":"uint48"},{"name":"schedule","type":"uint48","internalType":"uint48"}],"stateMutability":"view"},{"type":"function","name":"proposePrice","inputs":[{"name":"requester","type":"address","internalType":"address"},{"name":"identifier","type":"bytes32","internalType":"bytes32"},{"name":"timestamp","type":"uint256","internalType":"uint256"},{"name":"ancillaryData","type":"bytes","internalType":"bytes"},{"name":"proposedPrice","type":"int256","internalType":"int256"}],"outputs":[{"name":"totalBond","type":"uint256","internalType":"uint256"}],"stateMutability":"nonpayable"},{"type":"function","name":"proposePriceFor","inputs":[{"name":"proposer","type":"address","internalType":"address"},{"name":"requester","type":"address","internalType":"address"},{"name":"identifier","type":"bytes32","internalType":"bytes32"},{"name":"timestamp","type":"uint256","internalType":"uint256"},{"name":"ancillaryData","type":"bytes","internalType":"bytes"},{"name":"proposedPrice","type":"int256","internalType":"int256"}],"outputs":[{"name":"totalBond","type":"uint256","internalType":"uint256"}],"stateMutability":"nonpayable"},{"type":"function","name":"proxiableUUID","inputs":[],"outputs":[{"name":"","type":"bytes32","internalType":"bytes32"}],"stateMutability":"view"},{"type":"function","name":"removeRequestManager","inputs":[{"name":"requestManager","type":"address","internalType":"address"}],"outputs":[],"stateMutability":"nonpayable"},{"type":"function","name":"renounceRole","inputs":[{"name":"role","type":"bytes32","internalType":"bytes32"},{"name":"account","type":"address","internalType":"address"}],"outputs":[],"stateMutability":"nonpayable"},{"type":"function","name":"requestManagerSetBond","inputs":[{"name":"requester","type":"address","internalType":"address"},{"name":"identifier","type":"bytes32","internalType":"bytes32"},{"name":"ancillaryData","type":"bytes","internalType":"bytes"},{"name":"currency","type":"address","internalType":"contract IERC20"},{"name":"bond","type":"uint256","internalType":"uint256"}],"outputs":[],"stateMutability":"nonpayable"},{"type":"function","name":"requestManagerSetCustomLiveness","inputs":[{"name":"requester","type":"address","internalType":"address"},{"name":"identifier","type":"bytes32","internalType":"bytes32"},{"name":"ancillaryData","type":"bytes","internalType":"bytes"},{"name":"customLiveness","type":"uint256","internalType":"uint256"}],"outputs":[],"stateMutability":"nonpayable"},{"type":"function","name":"requestManagerSetProposerWhitelist","inputs":[{"name":"requester","type":"address","internalType":"address"},{"name":"identifier","type":"bytes32","internalType":"bytes32"},{"name":"ancillaryData","type":"bytes","internalType":"bytes"},{"name":"whitelist","type":"address","internalType":"address"}],"outputs":[],"stateMutability":"nonpayable"},{"type":"function","name":"requestPrice","inputs":[{"name":"identifier","type":"bytes32","internalType":"bytes32"},{"name":"timestamp","type":"uint256","internalType":"uint256"},{"name":"ancillaryData","type":"bytes","internalType":"bytes"},{"name":"currency","type":"address","internalType":"contract IERC20"},{"name":"reward","type":"uint256","internalType":"uint256"}],"outputs":[{"name":"totalBond","type":"uint256","internalType":"uint256"}],"stateMutability":"nonpayable"},{"type":"function","name":"requesterWhitelist","inputs":[],"outputs":[{"name":"","type":"address","internalType":"contract AddressWhitelistInterface"}],"stateMutability":"view"},{"type":"function","name":"requests","inputs":[{"name":"","type":"bytes32","internalType":"bytes32"}],"outputs":[{"name":"proposer","type":"address","internalType":"address"},{"name":"disputer","type":"address","internalType":"address"},{"name":"currency","type":"address","internalType":"contract IERC20"},{"name":"settled","type":"bool","internalType":"bool"},{"name":"requestSettings","type":"tuple","internalType":"struct OptimisticOracleV2Interface.RequestSettings","components":[{"name":"eventBased","type":"bool","internalType":"bool"},{"name":"refundOnDispute","type":"bool","internalType":"bool"},{"name":"callbackOnPriceProposed","type":"bool","internalType":"bool"},{"name":"callbackOnPriceDisputed","type":"bool","internalType":"bool"},{"name":"callbackOnPriceSettled","type":"bool","internalType":"bool"},{"name":"bond","type":"uint256","internalType":"uint256"},{"name":"customLiveness","type":"uint256","internalType":"uint256"}]},{"name":"proposedPrice","type":"int256","internalType":"int256"},{"name":"resolvedPrice","type":"int256","internalType":"int256"},{"name":"expirationTime","type":"uint256","internalType":"uint256"},{"name":"reward","type":"uint256","internalType":"uint256"},{"name":"finalFee","type":"uint256","internalType":"uint256"}],"stateMutability":"view"},{"type":"function","name":"revokeRole","inputs":[{"name":"role","type":"bytes32","internalType":"bytes32"},{"name":"account","type":"address","internalType":"address"}],"outputs":[],"stateMutability":"nonpayable"},{"type":"function","name":"rollbackDefaultAdminDelay","inputs":[],"outputs":[],"stateMutability":"nonpayable"},{"type":"function","name":"setAllowedBondRange","inputs":[{"name":"currency","type":"address","internalType":"contract IERC20"},{"name":"newRange","type":"tuple","internalType":"struct ManagedOptimisticOracleV2.BondRange","components":[{"name":"minimumBond","type":"uint128","internalType":"uint128"},{"name":"maximumBond","type":"uint128","internalType":"uint128"}]}],"outputs":[],"stateMutability":"nonpayable"},{"type":"function","name":"setBond","inputs":[{"name":"identifier","type":"bytes32","internalType":"bytes32"},{"name":"timestamp","type":"uint256","internalType":"uint256"},{"name":"ancillaryData","type":"bytes","internalType":"bytes"},{"name":"bond","type":"uint256","internalType":"uint256"}],"outputs":[{"name":"totalBond","type":"uint256","internalType":"uint256"}],"stateMutability":"nonpayable"},{"type":"function","name":"setCallbacks","inputs":[{"name":"identifier","type":"bytes32","internalType":"bytes32"},{"name":"timestamp","type":"uint256","internalType":"uint256"},{"name":"ancillaryData","type":"bytes","internalType":"bytes"},{"name":"callbackOnPriceProposed","type":"bool","internalType":"bool"},{"name":"callbackOnPriceDisputed","type":"bool","internalType":"bool"},{"name":"callbackOnPriceSettled","type":"bool","internalType":"bool"}],"outputs":[],"stateMutability":"nonpayable"},{"type":"function","name":"setCustomLiveness","inputs":[{"name":"identifier","type":"bytes32","internalType":"bytes32"},{"name":"timestamp","type":"uint256","internalType":"uint256"},{"name":"ancillaryData","type":"bytes","internalType":"bytes"},{"name":"customLiveness","type":"uint256","internalType":"uint256"}],"outputs":[],"stateMutability":"nonpayable"},{"type":"function","name":"setDefaultProposerWhitelist","inputs":[{"name":"whitelist","type":"address","internalType":"address"}],"outputs":[],"stateMutability":"nonpayable"},{"type":"function","name":"setEventBased","inputs":[{"name":"identifier","type":"bytes32","internalType":"bytes32"},{"name":"timestamp","type":"uint256","internalType":"uint256"},{"name":"ancillaryData","type":"bytes","internalType":"bytes"}],"outputs":[],"stateMutability":"nonpayable"},{"type":"function","name":"setMinimumLiveness","inputs":[{"name":"_minimumLiveness","type":"uint256","internalType":"uint256"}],"outputs":[],"stateMutability":"nonpayable"},{"type":"function","name":"setRefundOnDispute","inputs":[{"name":"identifier","type":"bytes32","internalType":"bytes32"},{"name":"timestamp","type":"uint256","internalType":"uint256"},{"name":"ancillaryData","type":"bytes","internalType":"bytes"}],"outputs":[],"stateMutability":"nonpayable"},{"type":"function","name":"setRequesterWhitelist","inputs":[{"name":"whitelist","type":"address","internalType":"address"}],"outputs":[],"stateMutability":"nonpayable"},{"type":"function","name":"settle","inputs":[{"name":"requester","type":"address","internalType":"address"},{"name":"identifier","type":"bytes32","internalType":"bytes32"},{"name":"timestamp","type":"uint256","internalType":"uint256"},{"name":"ancillaryData","type":"bytes","internalType":"bytes"}],"outputs":[{"name":"payout","type":"uint256","internalType":"uint256"}],"stateMutability":"nonpayable"},{"type":"function","name":"settleAndGetPrice","inputs":[{"name":"identifier","type":"bytes32","internalType":"bytes32"},{"name":"timestamp","type":"uint256","internalType":"uint256"},{"name":"ancillaryData","type":"bytes","internalType":"bytes"}],"outputs":[{"name":"","type":"int256","internalType":"int256"}],"stateMutability":"nonpayable"},{"type":"function","name":"stampAncillaryData","inputs":[{"name":"ancillaryData","type":"bytes","internalType":"bytes"},{"name":"requester","type":"address","internalType":"address"}],"outputs":[{"name":"","type":"bytes","internalType":"bytes"}],"stateMutability":"pure"},{"type":"function","name":"supportsInterface","inputs":[{"name":"interfaceId","type":"bytes4","internalType":"bytes4"}],"outputs":[{"name":"","type":"bool","internalType":"bool"}],"stateMutability":"view"},{"type":"function","name":"upgradeToAndCall","inputs":[{"name":"newImplementation","type":"address","internalType":"address"},{"name":"data","type":"bytes","internalType":"bytes"}],"outputs":[],"stateMutability":"payable"},{"type":"event","name":"AllowedBondRangeUpdated","inputs":[{"name":"currency","type":"address","indexed":true,"internalType":"contract IERC20"},{"name":"newMinimumBond","type":"uint256","indexed":false,"internalType":"uint256"},{"name":"newMaximumBond","type":"uint256","indexed":false,"internalType":"uint256"}],"anonymous":false},{"type":"event","name":"CustomBondSet","inputs":[{"name":"managedRequestId","type":"bytes32","indexed":true,"internalType":"bytes32"},{"name":"requester","type":"address","indexed":false,"internalType":"address"},{"name":"identifier","type":"bytes32","indexed":true,"internalType":"bytes32"},{"name":"ancillaryData","type":"bytes","indexed":false,"internalType":"bytes"},{"name":"currency","type":"address","indexed":true,"internalType":"contract IERC20"},{"name":"bond","type":"uint256","indexed":false,"internalType":"uint256"}],"anonymous":false},{"type":"event","name":"CustomLivenessSet","inputs":[{"name":"managedRequestId","type":"bytes32","indexed":true,"internalType":"bytes32"},{"name":"requester","type":"address","indexed":true,"internalType":"address"},{"name":"identifier","type":"bytes32","indexed":true,"internalType":"bytes32"},{"name":"ancillaryData","type":"bytes","indexed":false,"internalType":"bytes"},{"name":"customLiveness","type":"uint256","indexed":false,"internalType":"uint256"}],"anonymous":false},{"type":"event","name":"CustomProposerWhitelistSet","inputs":[{"name":"managedRequestId","type":"bytes32","indexed":true,"internalType":"bytes32"},{"name":"requester","type":"address","indexed":false,"internalType":"address"},{"name":"identifier","type":"bytes32","indexed":true,"internalType":"bytes32"},{"name":"ancillaryData","type":"bytes","indexed":false,"internalType":"bytes"},{"name":"newWhitelist","type":"address","indexed":true,"internalType":"address"}],"anonymous":false},{"type":"event","name":"DefaultAdminDelayChangeCanceled","inputs":[],"anonymous":false},{"type":"event","name":"DefaultAdminDelayChangeScheduled","inputs":[{"name":"newDelay","type":"uint48","indexed":false,"internalType":"uint48"},{"name":"effectSchedule","type":"uint48","indexed":false,"internalType":"uint48"}],"anonymous":false},{"type":"event","name":"DefaultAdminTransferCanceled","inputs":[],"anonymous":false},{"type":"event","name":"DefaultAdminTransferScheduled","inputs":[{"name":"newAdmin","type":"address","indexed":true,"internalType":"address"},{"name":"acceptSchedule","type":"uint48","indexed":false,"internalType":"uint48"}],"anonymous":false},{"type":"event","name":"DefaultProposerWhitelistUpdated","inputs":[{"name":"newWhitelist","type":"address","indexed":true,"internalType":"address"}],"anonymous":false},{"type":"event","name":"DisputePrice","inputs":[{"name":"requester","type":"address","indexed":true,"internalType":"address"},{"name":"proposer","type":"address","indexed":true,"internalType":"address"},{"name":"disputer","type":"address","indexed":true,"internalType":"address"},{"name":"identifier","type":"bytes32","indexed":false,"internalType":"bytes32"},{"name":"timestamp","type":"uint256","indexed":false,"internalType":"uint256"},{"name":"ancillaryData","type":"bytes","indexed":false,"internalType":"bytes"},{"name":"proposedPrice","type":"int256","indexed":false,"internalType":"int256"}],"anonymous":false},{"type":"event","name":"Initialized","inputs":[{"name":"version","type":"uint64","indexed":false,"internalType":"uint64"}],"anonymous":false},{"type":"event","name":"MinimumLivenessUpdated","inputs":[{"name":"newMinimumLiveness","type":"uint256","indexed":false,"internalType":"uint256"}],"anonymous":false},{"type":"event","name":"ProposePrice","inputs":[{"name":"requester","type":"address","indexed":true,"internalType":"address"},{"name":"proposer","type":"address","indexed":true,"internalType":"address"},{"name":"identifier","type":"bytes32","indexed":false,"internalType":"bytes32"},{"name":"timestamp","type":"uint256","indexed":false,"internalType":"uint256"},{"name":"ancillaryData","type":"bytes","indexed":false,"internalType":"bytes"},{"name":"proposedPrice","type":"int256","indexed":false,"internalType":"int256"},{"name":"expirationTimestamp","type":"uint256","indexed":false,"internalType":"uint256"},{"name":"currency","type":"address","indexed":false,"internalType":"address"}],"anonymous":false},{"type":"event","name":"RequestManagerAdded","inputs":[{"name":"requestManager","type":"address","indexed":true,"internalType":"address"}],"anonymous":false},{"type":"event","name":"RequestManagerRemoved","inputs":[{"name":"requestManager","type":"address","indexed":true,"internalType":"address"}],"anonymous":false},{"type":"event","name":"RequestPrice","inputs":[{"name":"requester","type":"address","indexed":true,"internalType":"address"},{"name":"identifier","type":"bytes32","indexed":false,"internalType":"bytes32"},{"name":"timestamp","type":"uint256","indexed":false,"internalType":"uint256"},{"name":"ancillaryData","type":"bytes","indexed":false,"internalType":"bytes"},{"name":"currency","type":"address","indexed":false,"internalType":"address"},{"name":"reward","type":"uint256","indexed":false,"internalType":"uint256"},{"name":"finalFee","type":"uint256","indexed":false,"internalType":"uint256"}],"anonymous":false},{"type":"event","name":"RequesterWhitelistUpdated","inputs":[{"name":"newWhitelist","type":"address","indexed":true,"internalType":"address"}],"anonymous":false},{"type":"event","name":"RoleAdminChanged","inputs":[{"name":"role","type":"bytes32","indexed":true,"internalType":"bytes32"},{"name":"previousAdminRole","type":"bytes32","indexed":true,"internalType":"bytes32"},{"name":"newAdminRole","type":"bytes32","indexed":true,"internalType":"bytes32"}],"anonymous":false},{"type":"event","name":"RoleGranted","inputs":[{"name":"role","type":"bytes32","indexed":true,"internalType":"bytes32"},{"name":"account","type":"address","indexed":true,"internalType":"address"},{"name":"sender","type":"address","indexed":true,"internalType":"address"}],"anonymous":false},{"type":"event","name":"RoleRevoked","inputs":[{"name":"role","type":"bytes32","indexed":true,"internalType":"bytes32"},{"name":"account","type":"address","indexed":true,"internalType":"address"},{"name":"sender","type":"address","indexed":true,"internalType":"address"}],"anonymous":false},{"type":"event","name":"Settle","inputs":[{"name":"requester","type":"address","indexed":true,"internalType":"address"},{"name":"proposer","type":"address","indexed":true,"internalType":"address"},{"name":"disputer","type":"address","indexed":true,"internalType":"address"},{"name":"identifier","type":"bytes32","indexed":false,"internalType":"bytes32"},{"name":"timestamp","type":"uint256","indexed":false,"internalType":"uint256"},{"name":"ancillaryData","type":"bytes","indexed":false,"internalType":"bytes"},{"name":"price","type":"int256","indexed":false,"internalType":"int256"},{"name":"payout","type":"uint256","indexed":false,"internalType":"uint256"}],"anonymous":false},{"type":"event","name":"Upgraded","inputs":[{"name":"implementation","type":"address","indexed":true,"internalType":"address"}],"anonymous":false},{"type":"error","name":"AccessControlBadConfirmation","inputs":[]},{"type":"error","name":"AccessControlEnforcedDefaultAdminDelay","inputs":[{"name":"schedule","type":"uint48","internalType":"uint48"}]},{"type":"error","name":"AccessControlEnforcedDefaultAdminRules","inputs":[]},{"type":"error","name":"AccessControlInvalidDefaultAdmin","inputs":[{"name":"defaultAdmin","type":"address","internalType":"address"}]},{"type":"error","name":"AccessControlUnauthorizedAccount","inputs":[{"name":"account","type":"address","internalType":"address"},{"name":"neededRole","type":"bytes32","internalType":"bytes32"}]},{"type":"error","name":"AddressEmptyCode","inputs":[{"name":"target","type":"address","internalType":"address"}]},{"type":"error","name":"AncillaryDataTooLong","inputs":[]},{"type":"error","name":"BondBelowMinimumBond","inputs":[]},{"type":"error","name":"BondExceedsMaximumBond","inputs":[]},{"type":"error","name":"CannotProposeTooEarly","inputs":[]},{"type":"error","name":"DisputerAddressCannotBeZero","inputs":[]},{"type":"error","name":"ERC1967InvalidImplementation","inputs":[{"name":"implementation","type":"address","internalType":"address"}]},{"type":"error","name":"ERC1967NonPayable","inputs":[]},{"type":"error","name":"FailedCall","inputs":[]},{"type":"error","name":"InvalidInitialization","inputs":[]},{"type":"error","name":"LivenessCannotBeZero","inputs":[]},{"type":"error","name":"LivenessTooLarge","inputs":[]},{"type":"error","name":"LivenessTooLow","inputs":[]},{"type":"error","name":"MinimumBondAboveMaximumBond","inputs":[]},{"type":"error","name":"NotInitializing","inputs":[]},{"type":"error","name":"ProposerAddressCannotBeZero","inputs":[]},{"type":"error","name":"ProposerNotWhitelisted","inputs":[]},{"type":"error","name":"ReentrancyGuardReentrantCall","inputs":[]},{"type":"error","name":"RequestNotSettleable","inputs":[]},{"type":"error","name":"RequestStateNotInvalid","inputs":[]},{"type":"error","name":"RequestStateNotProposed","inputs":[]},{"type":"error","name":"RequestStateNotRequested","inputs":[]},{"type":"error","name":"RequesterNotWhitelisted","inputs":[]},{"type":"error","name":"SafeCastOverflowedUintDowncast","inputs":[{"name":"bits","type":"uint8","internalType":"uint8"},{"name":"value","type":"uint256","internalType":"uint256"}]},{"type":"error","name":"SafeERC20FailedOperation","inputs":[{"name":"token","type":"address","internalType":"address"}]},{"type":"error","name":"SenderNotWhitelisted","inputs":[]},{"type":"error","name":"TimestampInFuture","inputs":[]},{"type":"error","name":"UUPSUnauthorizedCallContext","inputs":[]},{"type":"error","name":"UUPSUnsupportedProxiableUUID","inputs":[{"name":"slot","type":"bytes32","internalType":"bytes32"}]},{"type":"error","name":"UnsupportedCurrency","inputs":[]},{"type":"error","name":"UnsupportedIdentifier","inputs":[]},{"type":"error","name":"UnsupportedWhitelistInterface","inputs":[]},{"type":"error","name":"ZeroBondNotAllowed","inputs":[]}],"userdoc":{},"devdoc":{},"storageLayout":{"storage":[{"astId":11412,"contract":"src/optimistic-oracle-v2/implementation/ManagedOptimisticOracleV2.sol:ManagedOptimisticOracleV2","label":"requests","offset":0,"slot":"0","type":"t_mapping(t_bytes32,t_struct(Request)11388_storage)"},{"astId":11639,"contract":"src/optimistic-oracle-v2/implementation/ManagedOptimisticOracleV2.sol:ManagedOptimisticOracleV2","label":"__gap","offset":0,"slot":"1","type":"t_array(t_uint256)49_storage"},{"astId":8163,"contract":"src/optimistic-oracle-v2/implementation/ManagedOptimisticOracleV2.sol:ManagedOptimisticOracleV2","label":"_notEntered","offset":0,"slot":"50","type":"t_bool"},{"astId":8243,"contract":"src/optimistic-oracle-v2/implementation/ManagedOptimisticOracleV2.sol:ManagedOptimisticOracleV2","label":"__gap","offset":0,"slot":"51","type":"t_array(t_uint256)49_storage"},{"astId":9436,"contract":"src/optimistic-oracle-v2/implementation/ManagedOptimisticOracleV2.sol:ManagedOptimisticOracleV2","label":"finder","offset":0,"slot":"100","type":"t_contract(FinderInterface)7719"},{"astId":9439,"contract":"src/optimistic-oracle-v2/implementation/ManagedOptimisticOracleV2.sol:ManagedOptimisticOracleV2","label":"defaultLiveness","offset":0,"slot":"101","type":"t_uint256"},{"astId":11126,"contract":"src/optimistic-oracle-v2/implementation/ManagedOptimisticOracleV2.sol:ManagedOptimisticOracleV2","label":"__gap","offset":0,"slot":"102","type":"t_array(t_uint256)998_storage"},{"astId":8327,"contract":"src/optimistic-oracle-v2/implementation/ManagedOptimisticOracleV2.sol:ManagedOptimisticOracleV2","label":"__gap","offset":0,"slot":"1100","type":"t_array(t_uint256)50_storage"},{"astId":8469,"contract":"src/optimistic-oracle-v2/implementation/ManagedOptimisticOracleV2.sol:ManagedOptimisticOracleV2","label":"defaultProposerWhitelist","offset":0,"slot":"1150","type":"t_contract(AddressWhitelistInterface)8359"},{"astId":8472,"contract":"src/optimistic-oracle-v2/implementation/ManagedOptimisticOracleV2.sol:ManagedOptimisticOracleV2","label":"requesterWhitelist","offset":0,"slot":"1151","type":"t_contract(AddressWhitelistInterface)8359"},{"astId":8480,"contract":"src/optimistic-oracle-v2/implementation/ManagedOptimisticOracleV2.sol:ManagedOptimisticOracleV2","label":"customBonds","offset":0,"slot":"1152","type":"t_mapping(t_bytes32,t_mapping(t_contract(IERC20)2591,t_struct(CustomBond)8451_storage))"},{"astId":8485,"contract":"src/optimistic-oracle-v2/implementation/ManagedOptimisticOracleV2.sol:ManagedOptimisticOracleV2","label":"customLivenessValues","offset":0,"slot":"1153","type":"t_mapping(t_bytes32,t_struct(CustomLiveness)8456_storage)"},{"astId":8490,"contract":"src/optimistic-oracle-v2/implementation/ManagedOptimisticOracleV2.sol:ManagedOptimisticOracleV2","label":"customProposerWhitelists","offset":0,"slot":"1154","type":"t_mapping(t_bytes32,t_contract(AddressWhitelistInterface)8359)"},{"astId":8496,"contract":"src/optimistic-oracle-v2/implementation/ManagedOptimisticOracleV2.sol:ManagedOptimisticOracleV2","label":"allowedBondRanges","offset":0,"slot":"1155","type":"t_mapping(t_contract(IERC20)2591,t_struct(BondRange)8439_storage)"},{"astId":8498,"contract":"src/optimistic-oracle-v2/implementation/ManagedOptimisticOracleV2.sol:ManagedOptimisticOracleV2","label":"minimumLiveness","offset":0,"slot":"1156","type":"t_uint256"},{"astId":9344,"contract":"src/optimistic-oracle-v2/implementation/ManagedOptimisticOracleV2.sol:ManagedOptimisticOracleV2","label":"__gap","offset":0,"slot":"1157","type":"t_array(t_uint256)993_storage"}],"types":{"t_address":{"encoding":"inplace","label":"address","numberOfBytes":"20"},"t_array(t_uint256)49_storage":{"encoding":"inplace","label":"uint256[49]","numberOfBytes":"1568","base":"t_uint256"},"t_array(t_uint256)50_storage":{"encoding":"inplace","label":"uint256[50]","numberOfBytes":"1600","base":"t_uint256"},"t_array(t_uint256)993_storage":{"encoding":"inplace","label":"uint256[993]","numberOfBytes":"31776","base":"t_uint256"},"t_array(t_uint256)998_storage":{"encoding":"inplace","label":"uint256[998]","numberOfBytes":"31936","base":"t_uint256"},"t_bool":{"encoding":"inplace","label":"bool","numberOfBytes":"1"},"t_bytes32":{"encoding":"inplace","label":"bytes32","numberOfBytes":"32"},"t_contract(AddressWhitelistInterface)8359":{"encoding":"inplace","label":"contract AddressWhitelistInterface","numberOfBytes":"20"},"t_contract(FinderInterface)7719":{"encoding":"inplace","label":"contract FinderInterface","numberOfBytes":"20"},"t_contract(IERC20)2591":{"encoding":"inplace","label":"contract IERC20","numberOfBytes":"20"},"t_int256":{"encoding":"inplace","label":"int256","numberOfBytes":"32"},"t_mapping(t_bytes32,t_contract(AddressWhitelistInterface)8359)":{"encoding":"mapping","key":"t_bytes32","label":"mapping(bytes32 => contract AddressWhitelistInterface)","numberOfBytes":"32","value":"t_contract(AddressWhitelistInterface)8359"},"t_mapping(t_bytes32,t_mapping(t_contract(IERC20)2591,t_struct(CustomBond)8451_storage))":{"encoding":"mapping","key":"t_bytes32","label":"mapping(bytes32 => mapping(contract IERC20 => struct ManagedOptimisticOracleV2.CustomBond))","numberOfBytes":"32","value":"t_mapping(t_contract(IERC20)2591,t_struct(CustomBond)8451_storage)"},"t_mapping(t_bytes32,t_struct(CustomLiveness)8456_storage)":{"encoding":"mapping","key":"t_bytes32","label":"mapping(bytes32 => struct ManagedOptimisticOracleV2.CustomLiveness)","numberOfBytes":"32","value":"t_struct(CustomLiveness)8456_storage"},"t_mapping(t_bytes32,t_struct(Request)11388_storage)":{"encoding":"mapping","key":"t_bytes32","label":"mapping(bytes32 => struct OptimisticOracleV2Interface.Request)","numberOfBytes":"32","value":"t_struct(Request)11388_storage"},"t_mapping(t_contract(IERC20)2591,t_struct(BondRange)8439_storage)":{"encoding":"mapping","key":"t_contract(IERC20)2591","label":"mapping(contract IERC20 => struct ManagedOptimisticOracleV2.BondRange)","numberOfBytes":"32","value":"t_struct(BondRange)8439_storage"},"t_mapping(t_contract(IERC20)2591,t_struct(CustomBond)8451_storage)":{"encoding":"mapping","key":"t_contract(IERC20)2591","label":"mapping(contract IERC20 => struct ManagedOptimisticOracleV2.CustomBond)","numberOfBytes":"32","value":"t_struct(CustomBond)8451_storage"},"t_struct(BondRange)8439_storage":{"encoding":"inplace","label":"struct ManagedOptimisticOracleV2.BondRange","numberOfBytes":"32","members":[{"astId":8436,"contract":"src/optimistic-oracle-v2/implementation/ManagedOptimisticOracleV2.sol:ManagedOptimisticOracleV2","label":"minimumBond","offset":0,"slot":"0","type":"t_uint128"},{"astId":8438,"contract":"src/optimistic-oracle-v2/implementation/ManagedOptimisticOracleV2.sol:ManagedOptimisticOracleV2","label":"maximumBond","offset":16,"slot":"0","type":"t_uint128"}]},"t_struct(CustomBond)8451_storage":{"encoding":"inplace","label":"struct ManagedOptimisticOracleV2.CustomBond","numberOfBytes":"64","members":[{"astId":8448,"contract":"src/optimistic-oracle-v2/implementation/ManagedOptimisticOracleV2.sol:ManagedOptimisticOracleV2","label":"amount","offset":0,"slot":"0","type":"t_uint256"},{"astId":8450,"contract":"src/optimistic-oracle-v2/implementation/ManagedOptimisticOracleV2.sol:ManagedOptimisticOracleV2","label":"isSet","offset":0,"slot":"1","type":"t_bool"}]},"t_struct(CustomLiveness)8456_storage":{"encoding":"inplace","label":"struct ManagedOptimisticOracleV2.CustomLiveness","numberOfBytes":"64","members":[{"astId":8453,"contract":"src/optimistic-oracle-v2/implementation/ManagedOptimisticOracleV2.sol:ManagedOptimisticOracleV2","label":"liveness","offset":0,"slot":"0","type":"t_uint256"},{"astId":8455,"contract":"src/optimistic-oracle-v2/implementation/ManagedOptimisticOracleV2.sol:ManagedOptimisticOracleV2","label":"isSet","offset":0,"slot":"1","type":"t_bool"}]},"t_struct(Request)11388_storage":{"encoding":"inplace","label":"struct OptimisticOracleV2Interface.Request","numberOfBytes":"352","members":[{"astId":11367,"contract":"src/optimistic-oracle-v2/implementation/ManagedOptimisticOracleV2.sol:ManagedOptimisticOracleV2","label":"proposer","offset":0,"slot":"0","type":"t_address"},{"astId":11369,"contract":"src/optimistic-oracle-v2/implementation/ManagedOptimisticOracleV2.sol:ManagedOptimisticOracleV2","label":"disputer","offset":0,"slot":"1","type":"t_address"},{"astId":11372,"contract":"src/optimistic-oracle-v2/implementation/ManagedOptimisticOracleV2.sol:ManagedOptimisticOracleV2","label":"currency","offset":0,"slot":"2","type":"t_contract(IERC20)2591"},{"astId":11374,"contract":"src/optimistic-oracle-v2/implementation/ManagedOptimisticOracleV2.sol:ManagedOptimisticOracleV2","label":"settled","offset":20,"slot":"2","type":"t_bool"},{"astId":11377,"contract":"src/optimistic-oracle-v2/implementation/ManagedOptimisticOracleV2.sol:ManagedOptimisticOracleV2","label":"requestSettings","offset":0,"slot":"3","type":"t_struct(RequestSettings)11365_storage"},{"astId":11379,"contract":"src/optimistic-oracle-v2/implementation/ManagedOptimisticOracleV2.sol:ManagedOptimisticOracleV2","label":"proposedPrice","offset":0,"slot":"6","type":"t_int256"},{"astId":11381,"contract":"src/optimistic-oracle-v2/implementation/ManagedOptimisticOracleV2.sol:ManagedOptimisticOracleV2","label":"resolvedPrice","offset":0,"slot":"7","type":"t_int256"},{"astId":11383,"contract":"src/optimistic-oracle-v2/implementation/ManagedOptimisticOracleV2.sol:ManagedOptimisticOracleV2","label":"expirationTime","offset":0,"slot":"8","type":"t_uint256"},{"astId":11385,"contract":"src/optimistic-oracle-v2/implementation/ManagedOptimisticOracleV2.sol:ManagedOptimisticOracleV2","label":"reward","offset":0,"slot":"9","type":"t_uint256"},{"astId":11387,"contract":"src/optimistic-oracle-v2/implementation/ManagedOptimisticOracleV2.sol:ManagedOptimisticOracleV2","label":"finalFee","offset":0,"slot":"10","type":"t_uint256"}]},"t_struct(RequestSettings)11365_storage":{"encoding":"inplace","label":"struct OptimisticOracleV2Interface.RequestSettings","numberOfBytes":"96","members":[{"astId":11352,"contract":"src/optimistic-oracle-v2/implementation/ManagedOptimisticOracleV2.sol:ManagedOptimisticOracleV2","label":"eventBased","offset":0,"slot":"0","type":"t_bool"},{"astId":11354,"contract":"src/optimistic-oracle-v2/implementation/ManagedOptimisticOracleV2.sol:ManagedOptimisticOracleV2","label":"refundOnDispute","offset":1,"slot":"0","type":"t_bool"},{"astId":11356,"contract":"src/optimistic-oracle-v2/implementation/ManagedOptimisticOracleV2.sol:ManagedOptimisticOracleV2","label":"callbackOnPriceProposed","offset":2,"slot":"0","type":"t_bool"},{"astId":11358,"contract":"src/optimistic-oracle-v2/implementation/ManagedOptimisticOracleV2.sol:ManagedOptimisticOracleV2","label":"callbackOnPriceDisputed","offset":3,"slot":"0","type":"t_bool"},{"astId":11360,"contract":"src/optimistic-oracle-v2/implementation/ManagedOptimisticOracleV2.sol:ManagedOptimisticOracleV2","label":"callbackOnPriceSettled","offset":4,"slot":"0","type":"t_bool"},{"astId":11362,"contract":"src/optimistic-oracle-v2/implementation/ManagedOptimisticOracleV2.sol:ManagedOptimisticOracleV2","label":"bond","offset":0,"slot":"1","type":"t_uint256"},{"astId":11364,"contract":"src/optimistic-oracle-v2/implementation/ManagedOptimisticOracleV2.sol:ManagedOptimisticOracleV2","label":"customLiveness","offset":0,"slot":"2","type":"t_uint256"}]},"t_uint128":{"encoding":"inplace","label":"uint128","numberOfBytes":"16"},"t_uint256":{"encoding":"inplace","label":"uint256","numberOfBytes":"32"}}},"evm":{"bytecode":{"object":"60a060405230608052348015610013575f5ffd5b5061001c610029565b610024610029565b6100db565b7ff0c57e16840df040f15088dc2f81fe391c3923bec73e23a9662efc9c229c6a00805468010000000000000000900460ff16156100795760405163f92ee8a960e01b815260040160405180910390fd5b80546001600160401b03908116146100d85780546001600160401b0319166001600160401b0390811782556040519081527fc7f505b2f371ae2175ee4913f4499e1f2633a7b5936321eed1cdaeb6115181d29060200160405180910390a15b50565b608051615a6c6101015f395f8181612e5701528181612e800152612fc00152615a6c5ff3fe6080604052600436106103ea575f3560e01c806391d148541161020a578063b8b4f9081161011e578063cf6eefb7116100a8578063f327b07511610078578063f327b07514610d4d578063f38fdc0214610d6c578063fba7f1e314610d8c578063fe4e198314610dab578063ff8c1a8c14610dc0575f5ffd5b8063cf6eefb714610c9f578063d547741f14610cd9578063d602b9fd14610cf8578063e92706c614610d0c575f5ffd5b8063c371dda7116100ee578063c371dda714610c23578063c78ef28c14610c38578063cc8463c814610c58578063cdb21cc614610c6c578063cefc142914610c8b575f5ffd5b8063b8b4f90814610b9a578063b9a3c84c14610bb9578063ba4b930c14610bd8578063bc58ccaa14610c04575f5ffd5b8063ab328fb21161019f578063af5d2f391161016f578063af5d2f3914610a92578063afe1fcff14610ab1578063b4988fd014610afc578063b6cdb8ee14610b1b578063b873c4df14610b3a575f5ffd5b8063ab328fb2146109ea578063ac9650d814610a0a578063ad3cb1cc14610a36578063ad5a755a14610a73575f5ffd5b8063a1eda53c116101da578063a1eda53c1461095e578063a217fddf146107db578063a625b01e14610991578063a9904f9b146109be575f5ffd5b806391d148541461080457806391f58dcb1461082357806393ae2ebd146108425780639d86698514610861575f5ffd5b80634f1ef286116103015780636b821d061161029657806384ef8ffc1161026657806384ef8ffc1461077e5780638aca6afc146107925780638da5cb5b146107c75780638ffc2120146107db57806391152f10146107ee575f5ffd5b80636b821d061461070257806376c7823f146107215780637746e7ae146107405780637c82288f1461075f575f5ffd5b80635e9a79a9116102d15780635e9a79a914610686578063634e93da146106a5578063649a5ec7146106c45780636982ece0146106e3575f5ffd5b80634f1ef2861461062157806352d1902d1461063457806353b59239146106485780635845e68a14610667575f5ffd5b80632589382b11610382578063347b4dba11610352578063347b4dba1461059157806336568abe146105b0578063473c45fe146105cf5780634835698a146105ee5780634ccb56f51461060d575f5ffd5b80632589382b1461050957806329cb924d146105415780632f2ff15d1461055357806332ecce9e14610572575f5ffd5b8063120698af116103bd578063120698af1461048d5780631480db39146104ac5780631fa50cef146104cb578063248a9ca3146104ea575f5ffd5b806301ffc9a7146103ee578063022d63fb146104225780630aa6220b1461044a57806311df92f114610460575b5f5ffd5b3480156103f9575f5ffd5b5061040d610408366004614909565b610dd7565b60405190151581526020015b60405180910390f35b34801561042d575f5ffd5b50620697805b60405165ffffffffffff9091168152602001610419565b348015610455575f5ffd5b5061045e610e01565b005b34801561046b575f5ffd5b5061047f61047a366004614a00565b610e16565b604051908152602001610419565b348015610498575f5ffd5b5061045e6104a7366004614a65565b610eb7565b3480156104b7575f5ffd5b5061045e6104c6366004614ac0565b610f2f565b3480156104d6575f5ffd5b5061045e6104e5366004614ac0565b610f91565b3480156104f5575f5ffd5b5061047f610504366004614adb565b610fc8565b348015610514575f5ffd5b5061047f54610529906001600160a01b031681565b6040516001600160a01b039091168152602001610419565b34801561054c575f5ffd5b504261047f565b34801561055e575f5ffd5b5061045e61056d366004614af2565b610fe8565b34801561057d575f5ffd5b5061045e61058c366004614adb565b611014565b34801561059c575f5ffd5b5061045e6105ab366004614b20565b611043565b3480156105bb575f5ffd5b5061045e6105ca366004614af2565b611109565b3480156105da575f5ffd5b5061045e6105e9366004614b87565b6111cb565b3480156105f9575f5ffd5b5061047f610608366004614bda565b61123a565b348015610618575f5ffd5b5061047f611270565b61045e61062f366004614c18565b611280565b34801561063f575f5ffd5b5061047f61129b565b348015610653575f5ffd5b5061047f610662366004614a65565b6112b6565b348015610672575f5ffd5b5061045e610681366004614c64565b611313565b348015610691575f5ffd5b5061047f6106a0366004614ca2565b61134b565b3480156106b0575f5ffd5b5061045e6106bf366004614ac0565b61137a565b3480156106cf575f5ffd5b5061045e6106de366004614d00565b61138d565b3480156106ee575f5ffd5b5061045e6106fd366004614d25565b6113a0565b34801561070d575f5ffd5b5061045e61071c366004614ac0565b611457565b34801561072c575f5ffd5b5061047f61073b366004614d64565b611486565b34801561074b575f5ffd5b5061052961075a366004614bda565b6117ee565b34801561076a575f5ffd5b5061047f610779366004614dd4565b61181f565b348015610789575f5ffd5b50610529611a02565b34801561079d575f5ffd5b506105296107ac366004614adb565b6104826020525f90815260409020546001600160a01b031681565b3480156107d2575f5ffd5b50610529611a1d565b3480156107e6575f5ffd5b5061047f5f81565b3480156107f9575f5ffd5b5061047f6104845481565b34801561080f575f5ffd5b5061040d61081e366004614af2565b611a2b565b34801561082e575f5ffd5b5061045e61083d366004614a65565b611a61565b34801561084d575f5ffd5b5061045e61085c366004614e4e565b611add565b34801561086c575f5ffd5b5061094861087b366004614adb565b5f6020818152918152604090819020805460018201546002830154845160e081018652600385015460ff8082161515835261010082048116151598830198909852620100008104881615159682019690965263010000008604871615156060820152640100000000909504861615156080860152600484015460a0860152600584015460c08601526006840154600785015460088601546009870154600a909701546001600160a01b03968716999587169896851697600160a01b9095049095169594929391929091908a565b6040516104199a99989796959493929190614edc565b348015610969575f5ffd5b50610972611c48565b6040805165ffffffffffff938416815292909116602083015201610419565b34801561099c575f5ffd5b506109b06109ab366004614bda565b611cb7565b604051610419929190614f43565b3480156109c9575f5ffd5b506109dd6109d8366004614ca2565b611d97565b6040516104199190614f9b565b3480156109f5575f5ffd5b5061047e54610529906001600160a01b031681565b348015610a15575f5ffd5b50610a29610a24366004615048565b611f44565b60405161041991906150e5565b348015610a41575f5ffd5b50610a66604051806040016040528060058152602001640352e302e360dc1b81525081565b6040516104199190615148565b348015610a7e575f5ffd5b5061047f610a8d366004614b87565b61208a565b348015610a9d575f5ffd5b50610a66610aac36600461515a565b612109565b348015610abc575f5ffd5b50610ae7610acb366004614adb565b6104816020525f90815260409020805460019091015460ff1682565b60408051928352901515602083015201610419565b348015610b07575f5ffd5b5061045e610b1636600461519d565b612115565b348015610b26575f5ffd5b5061045e610b35366004614ac0565b612210565b348015610b45575f5ffd5b50610b7a610b54366004614ac0565b6104836020525f90815260409020546001600160801b0380821691600160801b90041682565b604080516001600160801b03938416815292909116602083015201610419565b348015610ba5575f5ffd5b5061047f610bb43660046151dc565b612272565b348015610bc4575f5ffd5b50606454610529906001600160a01b031681565b348015610be3575f5ffd5b50610bf7610bf2366004614ca2565b612281565b6040516104199190615255565b348015610c0f575f5ffd5b5061040d610c1e366004614ca2565b612296565b348015610c2e575f5ffd5b5061047f61200081565b348015610c43575f5ffd5b5061047f5f5160206159775f395f51905f5281565b348015610c63575f5ffd5b50610433612304565b348015610c77575f5ffd5b5061045e610c8636600461527b565b61237f565b348015610c96575f5ffd5b5061045e612535565b348015610caa575f5ffd5b50610cb3612574565b604080516001600160a01b03909316835265ffffffffffff909116602083015201610419565b348015610ce4575f5ffd5b5061045e610cf3366004614af2565b6125a1565b348015610d03575f5ffd5b5061045e6125c9565b348015610d17575f5ffd5b50610ae7610d26366004614af2565b61048060209081525f92835260408084209091529082529020805460019091015460ff1682565b348015610d58575f5ffd5b5061045e610d67366004615360565b6125db565b348015610d77575f5ffd5b5061047f5f5160206159d75f395f51905f5281565b348015610d97575f5ffd5b5061047f610da6366004614ca2565b612681565b348015610db6575f5ffd5b5061047f60655481565b348015610dcb575f5ffd5b5061047f600160ff1b81565b5f6001600160e01b031982166318a4c3c360e11b1480610dfb5750610dfb8261268f565b92915050565b5f610e0b816126c3565b610e136126cd565b50565b61047f54604051631d1d5b3960e11b81523360048201525f916001600160a01b031690633a3ab67290602401602060405180830381865afa158015610e5d573d5f5f3e3d5ffd5b505050506040513d601f19601f82011682018060405250810190610e8191906153e3565b610e9e57604051630f3c7c2760e01b815260040160405180910390fd5b610eab86868686866126d9565b90505b95945050505050565b610ebf612b74565b610ec7612b97565b6001610ed533858585612ba3565b6006811115610ee657610ee6615241565b14610f0457604051633a4e124d60e11b815260040160405180910390fd5b5f610f1133858585612cd5565b600301805461ffff191661010117905550610f2a612cfb565b505050565b610f37612b74565b610f3f612b97565b610f565f5160206159d75f395f51905f52826125a1565b6040516001600160a01b038216907ffed5843dda9e5d83f59e467c52752f2241404c2a28c007aff779c3d8efeed2e6905f90a2610e13612cfb565b610f99612b74565b610fa1612b97565b610fb75f5160206159775f395f51905f526126c3565b610fc081612d0a565b610e13612cfb565b5f9081525f5160206159f75f395f51905f52602052604090206001015490565b8161100657604051631fe1e13d60e11b815260040160405180910390fd5b6110108282612d5d565b5050565b61101c612b74565b611024612b97565b61103a5f5160206159775f395f51905f526126c3565b610fc081612d79565b61104b612b74565b611053612b97565b6110695f5160206159d75f395f51905f526126c3565b6001600160a01b038116156110815761108181612dbe565b5f61108d85858561123a565b5f81815261048260205260409081902080546001600160a01b0319166001600160a01b038616908117909155905191925090859083907f6176bed8b34e20579b664c32ad00534f173e1f7c4410232beef89bed4464ddc0906110f2908a9089906153fe565b60405180910390a450611103612cfb565b50505050565b5f5160206159b75f395f51905f528215801561113d5750611128611a02565b6001600160a01b0316826001600160a01b0316145b156111c1575f5f61114c612574565b90925090506001600160a01b03821615158061116e575065ffffffffffff8116155b8061118157504265ffffffffffff821610155b156111ae576040516319ca5ebb60e01b815265ffffffffffff821660048201526024015b60405180910390fd5b5050805465ffffffffffff60a01b191681555b610f2a8383612dec565b6111d3612b74565b6111db612b97565b60016111e933868686612ba3565b60068111156111fa576111fa615241565b1461121857604051633a4e124d60e11b815260040160405180910390fd5b61122181612e1f565b8061122e33868686612cd5565b60050155611103612cfb565b5f83838360405160200161125093929190615438565b6040516020818303038152906040528051906020012090505b9392505050565b61127d6035612000615470565b81565b611288612e4c565b61129182612ef0565b6110108282612ef9565b5f6112a4612fb5565b505f5160206159975f395f51905f5290565b5f6112bf612b74565b6112c7612b97565b60066112d533868686612ba3565b60068111156112e6576112e6615241565b146112f9576112f733858585612ffe565b505b61130533858585612cd5565b600701549050611269612cfb565b61131b612b74565b611323612b97565b6113395f5160206159775f395f51905f526126c3565b61134382826132f7565b611010612cfb565b5f611354612b74565b61135c612b97565b61136885858585612ffe565b9050611372612cfb565b949350505050565b5f611384816126c3565b6110108261346a565b5f611397816126c3565b611010826134d5565b6113a8612b74565b6113b0612b97565b6113c65f5160206159d75f395f51905f526126c3565b6113cf81612e1f565b5f6113db85858561123a565b604080518082018252848152600160208083018281525f8681526104819092529084902092518355519101805460ff19169115159190911790555190915084906001600160a01b0387169083907fc5314bcb93c25473b858a5086195e309861a64b4c3ddae4d0a5cb9c5fb6f30f4906110f29088908890615483565b61145f612b74565b611467612b97565b61147d5f5160206159775f395f51905f526126c3565b610fc081613544565b5f61148f612b74565b611497612b97565b6001600160a01b0386166114be5760405163bef5ceeb60e01b815260040160405180910390fd5b60026114cc86868686612ba3565b60068111156114dd576114dd615241565b146114fb57604051631bc1990760e31b815260040160405180910390fd5b5f61150886868686612cd5565b6001810180546001600160a01b0319166001600160a01b038a16179055600a81015460048201549192509061153d82826154a4565b9350831561155f57600283015461155f906001600160a01b0316333087613597565b5f6115686135fe565b90505f61157485613671565b61157e90856154a4565b9050801561161657600285015461159f906001600160a01b03168383613684565b6115a76135fe565b600286015460408051602081018252848152905163432ce91960e11b81526001600160a01b03928316600482015290516024820152911690638659d232906044015f604051808303815f87803b1580156115ff575f5ffd5b505af1158015611611573d5f5f3e3d5ffd5b505050505b61161e61370b565b6001600160a01b031663216666a48a611637888c613744565b6116418b8f61378f565b6040518463ffffffff1660e01b815260040161165f939291906154b7565b5f604051808303815f87803b158015611676575f5ffd5b505af1158015611688573d5f5f3e3d5ffd5b50505060098601545f9150158015906116aa57506003860154610100900460ff165b156116d357506009850180545f90915560028601546116d3906001600160a01b03168c836137bf565b8b6001600160a01b0316865f015f9054906101000a90046001600160a01b03166001600160a01b03168c6001600160a01b03167f5165909c3d1c01c5d1e121ac6f6d01dda1ba24bc9e1f975b5a375339c15be7f38d8d8d8c6006015460405161173f94939291906154d5565b60405180910390a461174f612cfb565b6001600160a01b038b163b15158015611773575060038601546301000000900460ff165b156117d8576040516306c791b960e11b81526001600160a01b038c1690630d8f2372906117aa908d908d908d9087906004016154d5565b5f604051808303815f87803b1580156117c1575f5ffd5b505af11580156117d3573d5f5f3e3d5ffd5b505050505b6117e0612b97565b505050505050610eae612cfb565b5f6104825f6117fe86868661123a565b815260208101919091526040015f20546001600160a01b0316949350505050565b5f5f61182d87878787612cd5565b90505f61183b88888761123a565b5f8181526104806020908152604080832060028701546001600160a01b0316845290915290206001015490915060ff161561189d575f8181526104806020908152604080832060028601546001600160a01b0316845290915290205460048301555b5f818152610481602052604090206001015460ff16156118cc575f818152610481602052604090205460058301555b5f6118d88989886137f0565b604051631d1d5b3960e11b81526001600160a01b038c8116600483015291925090821690633a3ab67290602401602060405180830381865afa158015611920573d5f5f3e3d5ffd5b505050506040513d601f19601f8201168201806040525081019061194491906153e3565b61196157604051636ffe5a9560e01b815260040160405180910390fd5b604051631d1d5b3960e11b81523360048201526001600160a01b03821690633a3ab67290602401602060405180830381865afa1580156119a3573d5f5f3e3d5ffd5b505050506040513d601f19601f820116820180604052508101906119c791906153e3565b6119e457604051637ed449a960e01b815260040160405180910390fd5b6119f28a8a8a8a8a8a613835565b93505050505b9695505050505050565b5f516020615a175f395f51905f52546001600160a01b031690565b5f611a26611a02565b905090565b5f9182525f5160206159f75f395f51905f52602090815260408084206001600160a01b0393909316845291905290205460ff1690565b611a69612b74565b611a71612b97565b6001611a7f33858585612ba3565b6006811115611a9057611a90615241565b14611aae57604051633a4e124d60e11b815260040160405180910390fd5b6001611abc33858585612cd5565b60030180549115156101000261ff0019909216919091179055610f2a612cfb565b611ae5612b74565b611aed612b97565b611b035f5160206159d75f395f51905f526126c3565b611b0b613a64565b604051631d1d5b3960e11b81526001600160a01b0384811660048301529190911690633a3ab67290602401602060405180830381865afa158015611b51573d5f5f3e3d5ffd5b505050506040513d601f19601f82011682018060405250810190611b7591906153e3565b611b9257604051631131fa7160e11b815260040160405180910390fd5b611b9c8282613aaa565b5f611ba886868661123a565b604080518082018252848152600160208083018281525f86815261048083528581206001600160a01b038b168083529352859020935184555192909101805460ff191692151592909217909155905191925090869083907f4544c320b43beb5421d5149ff92fa72b40f00ac65294c4b8ca3906f08fb5a8c290611c30908b908a908990615504565b60405180910390a450611c41612cfb565b5050505050565b5f516020615a175f395f51905f52545f90600160d01b900465ffffffffffff165f5160206159b75f395f51905f528115801590611c8d57504265ffffffffffff831610155b611c98575f5f611cae565b6001810154600160a01b900465ffffffffffff16825b92509250509091565b60605f5f611cc68686866137f0565b9050806001600160a01b031663d01f63f56040518163ffffffff1660e01b81526004015f60405180830381865afa158015611d03573d5f5f3e3d5ffd5b505050506040513d5f823e601f3d908101601f19168201604052611d2a9190810190615537565b816001600160a01b031663184d69ab6040518163ffffffff1660e01b8152600401602060405180830381865afa158015611d66573d5f5f3e3d5ffd5b505050506040513d601f19601f82011682018060405250810190611d8a91906153e3565b9250925050935093915050565b611e1d60408051610140810182525f80825260208083018290528284018290526060808401839052845160e081018652838152918201839052938101829052928301819052608083810182905260a0840182905260c084019190915290919082019081526020015f81526020015f81526020015f81526020015f81526020015f81525090565b611e25612b74565b611e3185858585612cd5565b604080516101408101825282546001600160a01b0390811682526001840154811660208084019190915260028501549182168385015260ff600160a01b90920482161515606080850191909152845160e08082018752600388015480861615158352610100808204871615159584019590955262010000810486161515978301979097526301000000870485161515928201929092526401000000009095049092161515608085810191909152600486015460a080870191909152600587015460c08088019190915291850195909552600686015494840194909452600785015493830193909352600884015490820152600983015491810191909152600a909101546101208201529050949350505050565b6060816001600160401b03811115611f5e57611f5e614930565b604051908082528060200260200182016040528015611f9157816020015b6060815260200190600190039081611f7c5790505b5090505f5b82811015612083575f8030868685818110611fb357611fb36155de565b9050602002810190611fc591906155f2565b604051611fd392919061563b565b5f60405180830381855af49150503d805f811461200b576040519150601f19603f3d011682016040523d82523d5f602084013e612010565b606091505b50915091508161205b57604481511015612028575f5ffd5b60048101905080806020019051810190612042919061564a565b60405162461bcd60e51b81526004016111a59190615148565b8084848151811061206e5761206e6155de565b60209081029190910101525050600101611f96565b5092915050565b5f612093612b74565b61209b612b97565b60016120a933878787612ba3565b60068111156120ba576120ba615241565b146120d857604051633a4e124d60e11b815260040160405180910390fd5b5f6120e533878787612cd5565b60048101849055600a8101549091506120fe90846154a4565b915050611372612cfb565b6060611269838361378f565b5f61211e613b5b565b805490915060ff600160401b82041615906001600160401b03165f811580156121445750825b90505f826001600160401b0316600114801561215f5750303b155b90508115801561216d575080155b1561218b5760405163f92ee8a960e01b815260040160405180910390fd5b845467ffffffffffffffff1916600117855583156121b557845460ff60401b1916600160401b1785555b6121c0888888613b83565b831561220657845460ff60401b19168555604051600181527fc7f505b2f371ae2175ee4913f4499e1f2633a7b5936321eed1cdaeb6115181d29060200160405180910390a15b5050505050505050565b612218612b74565b612220612b97565b6122375f5160206159d75f395f51905f5282610fe8565b6040516001600160a01b038216907f824f6fd7083aebf3e4245045a366a32f9489c6ce94efaba90ec0abbd10ddb1fb905f90a2610e13612cfb565b5f610eab33878787878761181f565b5f61228a612b74565b610eae85858585612ba3565b5f61229f612b74565b5f6122ac86868686612ba3565b905060068160068111156122c2576122c2615241565b14806122df575060058160068111156122dd576122dd615241565b145b806119f8575060038160068111156122f9576122f9615241565b149695505050505050565b5f516020615a175f395f51905f52545f905f5160206159b75f395f51905f5290600160d01b900465ffffffffffff16801580159061234957504265ffffffffffff8216105b612363578154600160d01b900465ffffffffffff16612378565b6001820154600160a01b900465ffffffffffff165b9250505090565b5f612388613b5b565b805490915060ff600160401b82041615906001600160401b03165f811580156123ae5750825b90505f826001600160401b031660011480156123c95750303b155b9050811580156123d7575080155b156123f55760405163f92ee8a960e01b815260040160405180910390fd5b845467ffffffffffffffff19166001178555831561241f57845460ff60401b1916600160401b1785555b61242a8e8e88613b83565b6124415f5160206159775f395f51905f5288613bb2565b506124665f5160206159d75f395f51905f525f5160206159775f395f51905f52613c1e565b61246f8c612d0a565b6124788b613544565b5f5b898110156124d5576124cd8b8b83818110612497576124976155de565b6124ad9260206060909202019081019150614ac0565b8c8c848181106124bf576124bf6155de565b9050606002016020016132f7565b60010161247a565b506124df88612d79565b831561252557845460ff60401b19168555604051600181527fc7f505b2f371ae2175ee4913f4499e1f2633a7b5936321eed1cdaeb6115181d29060200160405180910390a15b5050505050505050505050505050565b5f61253e612574565b509050336001600160a01b0382161461256c57604051636116401160e11b81523360048201526024016111a5565b610e13613c46565b5f5160206159b75f395f51905f52546001600160a01b03811691600160a01b90910465ffffffffffff1690565b816125bf57604051631fe1e13d60e11b815260040160405180910390fd5b6110108282613cdf565b5f6125d3816126c3565b610e13613cfb565b6125e3612b74565b6125eb612b97565b60016125f933888888612ba3565b600681111561260a5761260a615241565b1461262857604051633a4e124d60e11b815260040160405180910390fd5b5f61263533888888612cd5565b600301805463ffff00001916620100008615150263ff0000001916176301000000851515021764ff0000000019166401000000008415150217905550612679612cfb565b505050505050565b5f610eae3386868686611486565b5f6001600160e01b03198216637965db0b60e01b1480610dfb57506301ffc9a760e01b6001600160e01b0319831614610dfb565b610e138133613d05565b6126d75f5f613d3e565b565b5f6126e2612b74565b6126ea612b97565b5f6126f733888888612ba3565b600681111561270857612708615241565b146127265760405163f757fcff60e01b815260040160405180910390fd5b61272e613e16565b6001600160a01b03166390978d1b876040518263ffffffff1660e01b815260040161275b91815260200190565b602060405180830381865afa158015612776573d5f5f3e3d5ffd5b505050506040513d601f19601f8201168201806040525081019061279a91906153e3565b6127b7576040516356175d8f60e01b815260040160405180910390fd5b6127bf613a64565b604051631d1d5b3960e11b81526001600160a01b0385811660048301529190911690633a3ab67290602401602060405180830381865afa158015612805573d5f5f3e3d5ffd5b505050506040513d601f19601f8201168201806040525081019061282991906153e3565b61284657604051631131fa7160e11b815260040160405180910390fd5b42851115612867576040516347860b9760e01b815260040160405180910390fd5b6128746035612000615470565b8451111561289557604051630a56acd960e01b815260040160405180910390fd5b5f61289e6135fe565b604051635b97aadd60e01b81526001600160a01b0386811660048301529190911690635b97aadd90602401602060405180830381865afa1580156128e4573d5f5f3e3d5ffd5b505050506040513d601f19601f8201168201806040525081019061290891906156be565b5f015190506040518061014001604052805f6001600160a01b031681526020015f6001600160a01b03168152602001856001600160a01b031681526020015f151581526020016040518060e001604052805f151581526020015f151581526020015f151581526020015f151581526020015f151581526020018481526020015f81525081526020015f81526020015f81526020015f8152602001848152602001828152505f5f6129ba338b8b8b613e5c565b815260208082019290925260409081015f20835181546001600160a01b03199081166001600160a01b039283161783558585015160018401805490921690831617905584830151600283018054606080890151939094166001600160a81b031990911617600160a01b9215159290920291909117905560808086015180516003850180549783015196830151948301519383015161ffff1990981691151561ff0019169190911761010096151587021763ffff00001916620100009415159490940263ff0000001916939093176301000000921515929092029190911764ff0000000019166401000000009515159590950294909417905560a080840151600483015560c0938401516005830155840151600682015591830151600783015560e08301516008830155820151600982015561012090910151600a909101558215612b1357612b136001600160a01b038516333086613597565b336001600160a01b03167ff1679315ff325c257a944e0ca1bfe7b26616039e9511f9610d4ba3eca851027b888888888887604051612b56969594939291906156ff565b60405180910390a2612b69816002615744565b915050610eae612cfb565b60325460ff166126d757604051633ee5aeb560e01b815260040160405180910390fd5b6032805460ff19169055565b5f5f612bb186868686612cd5565b60028101549091506001600160a01b0316612bcf575f915050611372565b80546001600160a01b0316612be8576001915050611372565b6002810154600160a01b900460ff1615612c06576006915050611372565b60018101546001600160a01b0316612c36574281600801541115612c2b576002612c2e565b60035b915050611372565b612c3e61370b565b6001600160a01b031663b551cd5086612c578488613744565b612c61878b61378f565b6040518463ffffffff1660e01b8152600401612c7f939291906154b7565b602060405180830381865afa158015612c9a573d5f5f3e3d5ffd5b505050506040513d601f19601f82011682018060405250810190612cbe91906153e3565b612cc95760046119f8565b50600595945050505050565b5f5f5f612ce487878787613e5c565b81526020019081526020015f209050949350505050565b6032805460ff19166001179055565b612d1381612dbe565b61047e80546001600160a01b0319166001600160a01b0383169081179091556040517fe983c4450684b2324d78afaa992b88be67cf4d3919d7a6539ca774d7bb5189f4905f90a250565b612d6682610fc8565b612d6f816126c3565b6111038383613bb2565b612d8281613e94565b6104848190556040518181527fc41d1b4ad42d6f594ce26dc949c6aa711df74301f1f2c17b3a36d30c9761abf39060200160405180910390a150565b612dcf81634e759c3d60e11b613ed8565b610e13576040516367cc38ef60e01b815260040160405180910390fd5b6001600160a01b0381163314612e155760405163334bd91960e11b815260040160405180910390fd5b610f2a8282613ef3565b61048454811015612e43576040516337d02b5d60e21b815260040160405180910390fd5b610e1381613e94565b306001600160a01b037f0000000000000000000000000000000000000000000000000000000000000000161480612ed257507f00000000000000000000000000000000000000000000000000000000000000006001600160a01b0316612ec65f5160206159975f395f51905f52546001600160a01b031690565b6001600160a01b031614155b156126d75760405163703e46dd60e11b815260040160405180910390fd5b610e135f6126c3565b816001600160a01b03166352d1902d6040518163ffffffff1660e01b8152600401602060405180830381865afa925050508015612f53575060408051601f3d908101601f19168201909252612f509181019061575b565b60015b612f7b57604051634c9c8ce360e01b81526001600160a01b03831660048201526024016111a5565b5f5160206159975f395f51905f528114612fab57604051632a87526960e21b8152600481018290526024016111a5565b610f2a8383613f4a565b306001600160a01b037f000000000000000000000000000000000000000000000000000000000000000016146126d75760405163703e46dd60e11b815260040160405180910390fd5b5f5f61300c86868686612ba3565b90505f61301b87878787612cd5565b60028101805460ff60a01b1916600160a01b1790559050600382600681111561304657613046615241565b0361309e57600681015460078201556009810154600a820154600483015461306e91906154a4565b61307891906154a4565b81546002830154919450613099916001600160a01b039081169116856137bf565b6131f3565b60058260068111156130b2576130b2615241565b036131da576130bf61370b565b6001600160a01b031663719c6d56876130d88489613744565b6130e2888c61378f565b6040518463ffffffff1660e01b8152600401613100939291906154b7565b602060405180830381865afa15801561311b573d5f5f3e3d5ffd5b505050506040513d601f19601f8201168201806040525081019061313f919061575b565b6007820181905560068201546004830154911415905f61315e84613671565b6131689083615470565b9050836009015484600a0154828461318091906154a4565b61318a91906154a4565b61319491906154a4565b95506131d2836131ae5784546001600160a01b03166131bd565b60018501546001600160a01b03165b60028601546001600160a01b031690886137bf565b5050506131f3565b604051639c71cb8360e01b815260040160405180910390fd5b6001810154815460078301546040516001600160a01b0393841693928316928b16917f3f384afb4bd9f0aef0298c80399950011420eb33b0e1a750b20966270247b9a091613248918c918c918c918c90615772565b60405180910390a4613258612cfb565b6001600160a01b0387163b1515801561327d57506003810154640100000000900460ff165b156132e55760078101546040516304cc1fd560e01b81526001600160a01b038916916304cc1fd5916132b7918a918a918a916004016154d5565b5f604051808303815f87803b1580156132ce575f5ffd5b505af11580156132e0573d5f5f3e3d5ffd5b505050505b6132ed612b97565b5050949350505050565b6132ff613a64565b604051631d1d5b3960e11b81526001600160a01b0384811660048301529190911690633a3ab67290602401602060405180830381865afa158015613345573d5f5f3e3d5ffd5b505050506040513d601f19601f8201168201806040525081019061336991906153e3565b61338657604051631131fa7160e11b815260040160405180910390fd5b61339660408201602083016157b8565b6001600160801b03166133ac60208301836157b8565b6001600160801b031611156133d457604051635b1a743760e01b815260040160405180910390fd5b6001600160a01b0382165f9081526104836020526040902081906133f882826157d3565b50506001600160a01b0382167f143b6bf2ebf8381dc4db7edfc69b944d4a518b2be84f1d6230aecb2b698100e461343260208401846157b8565b61344260408501602086016157b8565b604080516001600160801b039384168152929091166020830152015b60405180910390a25050565b5f613473612304565b61347c42613f9f565b6134869190615824565b90506134928282613fd5565b60405165ffffffffffff821681526001600160a01b038316907f3377dc44241e779dd06afab5b788a35ca5f3b778836e2990bdb26a2a4b2e5ed69060200161345e565b5f6134df8261405f565b6134e842613f9f565b6134f29190615824565b90506134fe8282613d3e565b6040805165ffffffffffff8085168252831660208201527ff1038c18cf84a56e432fdbfaf746924b7ea511dfe03a6506a0ceba4888788d9b910160405180910390a15050565b61354d81612dbe565b61047f80546001600160a01b0319166001600160a01b0383169081179091556040517fab1796ea525d29607f67aabc405756efd2fc7c4eb2531e627f6ec697ac618a8e905f90a250565b6040516001600160a01b0384811660248301528381166044830152606482018390526111039186918216906323b872dd906084015b604051602081830303815290604052915060e01b6020820180516001600160e01b0383818316178352505050506140a6565b6064546040516302abf57960e61b81526453746f726560d81b60048201525f916001600160a01b03169063aafd5e40906024015b602060405180830381865afa15801561364d573d5f5f3e3d5ffd5b505050506040513d601f19601f82011682018060405250810190611a269190615842565b60048101545f90610dfb90600290615871565b604051636eb1769f60e11b81523060048201526001600160a01b0383811660248301525f919085169063dd62ed3e90604401602060405180830381865afa1580156136d1573d5f5f3e3d5ffd5b505050506040513d601f19601f820116820180604052508101906136f5919061575b565b9050611103848461370685856154a4565b614112565b6064546040516302abf57960e61b8152654f7261636c6560d01b60048201525f916001600160a01b03169063aafd5e4090602401613632565b60038201545f9060ff16156137885760058301545f9081036137685760655461376e565b60058401545b90508084600801546137809190615470565b915050610dfb565b5080610dfb565b6060611269836040518060400160405280600b81526020016a37b7a932b8bab2b9ba32b960a91b815250846141a1565b6040516001600160a01b03838116602483015260448201839052610f2a91859182169063a9059cbb906064016135cc565b5f6104825f61380086868661123a565b815260208101919091526040015f20546001600160a01b0316905080611269575061047e546001600160a01b03169392505050565b5f61383e612b74565b613846612b97565b6001600160a01b03871661386d5760405163062a0f5b60e21b815260040160405180910390fd5b600161387b87878787612ba3565b600681111561388c5761388c615241565b146138aa57604051633a4e124d60e11b815260040160405180910390fd5b5f6138b787878787612cd5565b600381015490915060ff16156138eb57600160ff1b83036138eb5760405163cad802eb60e01b815260040160405180910390fd5b80546001600160a01b0319166001600160a01b0389161781556006810183905560058101545f0361391e57606554613924565b60058101545b61392e90426154a4565b6008820155600a810154600482015461394791906154a4565b91508115613969576002810154613969906001600160a01b0316333085613597565b600881015460028201546040516001600160a01b038b8116938b8216937f6e51dd00371aabffa82cd401592f76ed51e98a9ea4b58751c70463a2c78b5ca1936139bd938d938d938d938d9390911690615890565b60405180910390a36139cd612cfb565b6001600160a01b0387163b151580156139f05750600381015462010000900460ff165b15613a5357604051639c2fd1df60e01b81526001600160a01b03881690639c2fd1df90613a25908990899089906004016154b7565b5f604051808303815f87803b158015613a3c575f5ffd5b505af1158015613a4e573d5f5f3e3d5ffd5b505050505b613a5b612b97565b506119f8612cfb565b6064546040516302abf57960e61b81527210dbdb1b185d195c985b15da1a5d195b1a5cdd606a1b60048201525f916001600160a01b03169063aafd5e4090602401613632565b805f03613aca57604051634935f70160e11b815260040160405180910390fd5b6001600160a01b0382165f90815261048360209081526040918290208251808401909352546001600160801b03808216808552600160801b9092041691830191909152821015613b2d5760405163dba3b86160e01b815260040160405180910390fd5b80602001516001600160801b0316821115610f2a57604051631f7b5d6160e01b815260040160405180910390fd5b5f807ff0c57e16840df040f15088dc2f81fe391c3923bec73e23a9662efc9c229c6a00610dfb565b613b8b6141e6565b613b9361420b565b613ba06203f48082614213565b613ba8614225565b610f2a838361422d565b5f5f5160206159b75f395f51905f5283613c14575f613bcf611a02565b6001600160a01b031614613bf657604051631fe1e13d60e11b815260040160405180910390fd5b6001810180546001600160a01b0319166001600160a01b0385161790555b611372848461425f565b81613c3c57604051631fe1e13d60e11b815260040160405180910390fd5b6110108282614300565b5f5160206159b75f395f51905f525f80613c5e612574565b91509150613c738165ffffffffffff16151590565b1580613c8757504265ffffffffffff821610155b15613caf576040516319ca5ebb60e01b815265ffffffffffff821660048201526024016111a5565b613cc05f613cbb611a02565b613ef3565b50613ccb5f83613bb2565b505081546001600160d01b03191690915550565b613ce882610fc8565b613cf1816126c3565b6111038383613ef3565b6126d75f5f613fd5565b613d0f8282611a2b565b6110105760405163e2517d3f60e01b81526001600160a01b0382166004820152602481018390526044016111a5565b5f516020615a175f395f51905f52545f5160206159b75f395f51905f5290600160d01b900465ffffffffffff168015613dd8574265ffffffffffff82161015613daf57600182015482546001600160d01b0316600160a01b90910465ffffffffffff16600160d01b02178255613dd8565b6040517f2b1fa2edafe6f7b9e97c1a9e0c3660e645beb2dcaa2d45bdbf9beaf5472e1ec5905f90a15b5060010180546001600160a01b0316600160a01b65ffffffffffff948516026001600160d01b031617600160d01b9290931691909102919091179055565b6064546040516302abf57960e61b8152721259195b9d1a599a595c95da1a5d195b1a5cdd606a1b60048201525f916001600160a01b03169063aafd5e4090602401613632565b5f84848484604051602001613e7494939291906158d5565b604051602081830303815290604052805190602001209050949350505050565b63bb7448008110613eb85760405163cb40339f60e01b815260040160405180910390fd5b5f8111610e135760405163fa050ec160e01b815260040160405180910390fd5b5f613ee283614360565b801561126957506112698383614392565b5f5f5160206159b75f395f51905f5283158015613f285750613f13611a02565b6001600160a01b0316836001600160a01b0316145b15613f40576001810180546001600160a01b03191690555b6113728484614418565b613f5382614491565b6040516001600160a01b038316907fbc7cd75a20ee27fd9adebab32041f755214dbc6bffa90cc0225b39da2e5c2d3b905f90a2805115613f9757610f2a82826144f4565b61101061455d565b5f65ffffffffffff821115613fd1576040516306dfcc6560e41b815260306004820152602481018390526044016111a5565b5090565b5f5160206159b75f395f51905f525f613fec612574565b835465ffffffffffff8616600160a01b026001600160d01b03199091166001600160a01b03881617178455915061402c90508165ffffffffffff16151590565b15611103576040517f8886ebfc4259abdbc16601dd8fb5678e54878f47b3c34836cfc51154a9605109905f90a150505050565b5f5f614069612304565b90508065ffffffffffff168365ffffffffffff16116140915761408c83826158ff565b611269565b61126965ffffffffffff84166206978061457c565b5f5f60205f8451602086015f885af1806140c5576040513d5f823e3d81fd5b50505f513d915081156140dc5780600114156140e9565b6001600160a01b0384163b155b1561110357604051635274afe760e01b81526001600160a01b03851660048201526024016111a5565b604080516001600160a01b038416602482015260448082018490528251808303909101815260649091019091526020810180516001600160e01b031663095ea7b360e01b179052614163848261458b565b611103576040516001600160a01b0384811660248301525f604483015261419791869182169063095ea7b3906064016135cc565b61110384826140a6565b60605f6141ae85856145d0565b905084816141bb85614612565b6040516020016141cd9392919061591d565b6040516020818303038152906040529150509392505050565b6141ee61467a565b6126d757604051631afcd79f60e31b815260040160405180910390fd5b6126d76141e6565b61421b6141e6565b6110108282614693565b612cfb6141e6565b6142356141e6565b606480546001600160a01b0319166001600160a01b03831617905561425982612e1f565b50606555565b5f5f5160206159f75f395f51905f526142788484611a2b565b6142f7575f848152602082815260408083206001600160a01b03871684529091529020805460ff191660011790556142ad3390565b6001600160a01b0316836001600160a01b0316857f2f8788117e7eff1d82e926ec794901d17c78024a50270940304540a733656f0d60405160405180910390a46001915050610dfb565b5f915050610dfb565b5f5160206159f75f395f51905f525f61431884610fc8565b5f85815260208490526040808220600101869055519192508491839187917fbd79b86ffe0ab8e8776151514217cd7cacd52c909f66475c3af44e129f0b00ff9190a450505050565b5f614372826301ffc9a760e01b614392565b8015610dfb575061438b826001600160e01b0319614392565b1592915050565b6040516001600160e01b0319821660248201525f90819060440160408051601f19818403018152919052602080820180516001600160e01b03166301ffc9a760e01b17815282519293505f9283928392909183918a617530fa92503d91505f519050828015614402575060208210155b801561440d57505f81115b979650505050505050565b5f5f5160206159f75f395f51905f526144318484611a2b565b156142f7575f848152602082815260408083206001600160a01b0387168085529252808320805460ff1916905551339287917ff6391f5c32d9c69d2a47ea670b442974b53935d1edc7fd64eb21e047a839171b9190a46001915050610dfb565b806001600160a01b03163b5f036144c657604051634c9c8ce360e01b81526001600160a01b03821660048201526024016111a5565b5f5160206159975f395f51905f5280546001600160a01b0319166001600160a01b0392909216919091179055565b60605f5f846001600160a01b031684604051614510919061593a565b5f60405180830381855af49150503d805f8114614548576040519150601f19603f3d011682016040523d82523d5f602084013e61454d565b606091505b5091509150610eae8583836146f9565b34156126d75760405163b398979f60e01b815260040160405180910390fd5b5f828218828410028218611269565b5f5f5f5f60205f8651602088015f8a5af192503d91505f5190508280156119f8575081156145bc57806001146119f8565b50505050506001600160a01b03163b151590565b81516060901561460157816040516020016145eb9190615945565b6040516020818303038152906040529050610dfb565b816040516020016145eb919061596b565b606061462a6001600160801b03602084901c16614750565b6146408360601b6001600160601b031916614750565b6040516020016146649291909182526001600160c01b031916602082015260280190565b6040516020818303038152906040529050919050565b5f614683613b5b565b54600160401b900460ff16919050565b61469b6141e6565b5f5160206159b75f395f51905f526001600160a01b0382166146d257604051636116401160e11b81525f60048201526024016111a5565b80546001600160d01b0316600160d01b65ffffffffffff8516021781556111035f83613bb2565b6060826147095761408c826148e1565b815115801561472057506001600160a01b0384163b155b1561474957604051639996b31560e01b81526001600160a01b03851660048201526024016111a5565b5080611269565b5f5f825f1c9050806001600160801b0316905080600160401b02811777ffffffffffffffff0000000000000000ffffffffffffffff169050806401000000000281177bffffffff00000000ffffffff00000000ffffffff00000000ffffffff16905080620100000281177dffff0000ffff0000ffff0000ffff0000ffff0000ffff0000ffff0000ffff169050806101000281177eff00ff00ff00ff00ff00ff00ff00ff00ff00ff00ff00ff00ff00ff00ff00ff1690508060100281177f0f0f0f0f0f0f0f0f0f0f0f0f0f0f0f0f0f0f0f0f0f0f0f0f0f0f0f0f0f0f0f0f1690505f6008827f080808080808080808080808080808080808080808080808080808080808080816816148635761486361585d565b0460047f040404040404040404040404040404040404040404040404040404040404040484160460027f020202020202020202020202020202020202020202020202020202020202020285160417166027029091017f3030303030303030303030303030303030303030303030303030303030303030019392505050565b8051156148f057805160208201fd5b60405163d6bda27560e01b815260040160405180910390fd5b5f60208284031215614919575f5ffd5b81356001600160e01b031981168114611269575f5ffd5b634e487b7160e01b5f52604160045260245ffd5b604051601f8201601f191681016001600160401b038111828210171561496c5761496c614930565b604052919050565b5f6001600160401b0382111561498c5761498c614930565b50601f01601f191660200190565b5f82601f8301126149a9575f5ffd5b81356149bc6149b782614974565b614944565b8181528460208386010111156149d0575f5ffd5b816020850160208301375f918101602001919091529392505050565b6001600160a01b0381168114610e13575f5ffd5b5f5f5f5f5f60a08688031215614a14575f5ffd5b853594506020860135935060408601356001600160401b03811115614a37575f5ffd5b614a438882890161499a565b9350506060860135614a54816149ec565b949793965091946080013592915050565b5f5f5f60608486031215614a77575f5ffd5b833592506020840135915060408401356001600160401b03811115614a9a575f5ffd5b614aa68682870161499a565b9150509250925092565b8035614abb816149ec565b919050565b5f60208284031215614ad0575f5ffd5b8135611269816149ec565b5f60208284031215614aeb575f5ffd5b5035919050565b5f5f60408385031215614b03575f5ffd5b823591506020830135614b15816149ec565b809150509250929050565b5f5f5f5f60808587031215614b33575f5ffd5b8435614b3e816149ec565b93506020850135925060408501356001600160401b03811115614b5f575f5ffd5b614b6b8782880161499a565b9250506060850135614b7c816149ec565b939692955090935050565b5f5f5f5f60808587031215614b9a575f5ffd5b843593506020850135925060408501356001600160401b03811115614bbd575f5ffd5b614bc98782880161499a565b949793965093946060013593505050565b5f5f5f60608486031215614bec575f5ffd5b8335614bf7816149ec565b92506020840135915060408401356001600160401b03811115614a9a575f5ffd5b5f5f60408385031215614c29575f5ffd5b8235614c34816149ec565b915060208301356001600160401b03811115614c4e575f5ffd5b614c5a8582860161499a565b9150509250929050565b5f5f8284036060811215614c76575f5ffd5b8335614c81816149ec565b92506040601f1982011215614c94575f5ffd5b506020830190509250929050565b5f5f5f5f60808587031215614cb5575f5ffd5b8435614cc0816149ec565b9350602085013592506040850135915060608501356001600160401b03811115614ce8575f5ffd5b614cf48782880161499a565b91505092959194509250565b5f60208284031215614d10575f5ffd5b813565ffffffffffff81168114611269575f5ffd5b5f5f5f5f60808587031215614d38575f5ffd5b8435614d43816149ec565b93506020850135925060408501356001600160401b03811115614bbd575f5ffd5b5f5f5f5f5f60a08688031215614d78575f5ffd5b8535614d83816149ec565b94506020860135614d93816149ec565b9350604086013592506060860135915060808601356001600160401b03811115614dbb575f5ffd5b614dc78882890161499a565b9150509295509295909350565b5f5f5f5f5f5f60c08789031215614de9575f5ffd5b8635614df4816149ec565b95506020870135614e04816149ec565b9450604087013593506060870135925060808701356001600160401b03811115614e2c575f5ffd5b614e3889828a0161499a565b9699959850939692959460a09093013593505050565b5f5f5f5f5f60a08688031215614e62575f5ffd5b8535614e6d816149ec565b94506020860135935060408601356001600160401b03811115614a37575f5ffd5b80511515825260208101511515602083015260408101511515604083015260608101511515606083015260808101511515608083015260a081015160a083015260c081015160c08301525050565b6001600160a01b038b811682528a811660208301528916604082015287151560608201526102008101614f126080830189614e8e565b6101608201969096526101808101949094526101a08401929092526101c08301526101e09091015295945050505050565b604080825283519082018190525f9060208501906060840190835b81811015614f855783516001600160a01b0316835260209384019390920191600101614f5e565b5050809250505082151560208301529392505050565b81516001600160a01b0316815261020081016020830151614fc760208401826001600160a01b03169052565b506040830151614fe260408401826001600160a01b03169052565b506060830151614ff6606084018215159052565b5060808301516150096080840182614e8e565b5060a083015161016083015260c083015161018083015260e08301516101a08301526101008301516101c0830152610120909201516101e09091015290565b5f5f60208385031215615059575f5ffd5b82356001600160401b0381111561506e575f5ffd5b8301601f8101851361507e575f5ffd5b80356001600160401b03811115615093575f5ffd5b8560208260051b84010111156150a7575f5ffd5b6020919091019590945092505050565b5f81518084528060208401602086015e5f602082860101526020601f19601f83011685010191505092915050565b5f602082016020835280845180835260408501915060408160051b8601019250602086015f5b8281101561513c57603f198786030184526151278583516150b7565b9450602093840193919091019060010161510b565b50929695505050505050565b602081525f61126960208301846150b7565b5f5f6040838503121561516b575f5ffd5b82356001600160401b03811115615180575f5ffd5b61518c8582860161499a565b9250506020830135614b15816149ec565b5f5f5f606084860312156151af575f5ffd5b8335925060208401356151c1816149ec565b915060408401356151d1816149ec565b809150509250925092565b5f5f5f5f5f60a086880312156151f0575f5ffd5b85356151fb816149ec565b9450602086013593506040860135925060608601356001600160401b03811115615223575f5ffd5b61522f8882890161499a565b95989497509295608001359392505050565b634e487b7160e01b5f52602160045260245ffd5b602081016007831061527557634e487b7160e01b5f52602160045260245ffd5b91905290565b5f5f5f5f5f5f5f5f5f6101008a8c031215615294575f5ffd5b8935985060208a01356152a6816149ec565b975060408a01356152b6816149ec565b965060608a01356152c6816149ec565b955060808a01356001600160401b038111156152e0575f5ffd5b8a01601f81018c136152f0575f5ffd5b80356001600160401b03811115615305575f5ffd5b8c6020606083028401011115615319575f5ffd5b6020919091019550935060a08a0135925061533660c08b01614ab0565b915061534460e08b01614ab0565b90509295985092959850929598565b8015158114610e13575f5ffd5b5f5f5f5f5f5f60c08789031215615375575f5ffd5b863595506020870135945060408701356001600160401b03811115615398575f5ffd5b6153a489828a0161499a565b94505060608701356153b581615353565b925060808701356153c581615353565b915060a08701356153d581615353565b809150509295509295509295565b5f602082840312156153f3575f5ffd5b815161126981615353565b6001600160a01b03831681526040602082018190525f90611372908301846150b7565b5f81518060208401855e5f93019283525090919050565b6001600160601b03198460601b1681528260148201525f610eae6034830184615421565b634e487b7160e01b5f52601160045260245ffd5b81810381811115610dfb57610dfb61545c565b604081525f61549560408301856150b7565b90508260208301529392505050565b80820180821115610dfb57610dfb61545c565b838152826020820152606060408201525f610eae60608301846150b7565b848152836020820152608060408201525f6154f360808301856150b7565b905082606083015295945050505050565b6001600160a01b03841681526060602082018190525f90615527908301856150b7565b9050826040830152949350505050565b5f60208284031215615547575f5ffd5b81516001600160401b0381111561555c575f5ffd5b8201601f8101841361556c575f5ffd5b80516001600160401b0381111561558557615585614930565b8060051b61559560208201614944565b918252602081840181019290810190878411156155b0575f5ffd5b6020850194505b8385101561440d57845192506155cc836149ec565b828252602094850194909101906155b7565b634e487b7160e01b5f52603260045260245ffd5b5f5f8335601e19843603018112615607575f5ffd5b8301803591506001600160401b03821115615620575f5ffd5b602001915036819003821315615634575f5ffd5b9250929050565b818382375f9101908152919050565b5f6020828403121561565a575f5ffd5b81516001600160401b0381111561566f575f5ffd5b8201601f8101841361567f575f5ffd5b805161568d6149b782614974565b8181528560208385010111156156a1575f5ffd5b8160208401602083015e5f91810160200191909152949350505050565b5f60208284031280156156cf575f5ffd5b50604051602081016001600160401b03811182821017156156f2576156f2614930565b6040529151825250919050565b86815285602082015260c060408201525f61571d60c08301876150b7565b6001600160a01b0395909516606083015250608081019290925260a0909101529392505050565b8082028115828204841417610dfb57610dfb61545c565b5f6020828403121561576b575f5ffd5b5051919050565b85815284602082015260a060408201525f61579060a08301866150b7565b606083019490945250608001529392505050565b6001600160801b0381168114610e13575f5ffd5b5f602082840312156157c8575f5ffd5b8135611269816157a4565b81356157de816157a4565b6001600160801b0381169050806001600160801b03198354161782556020830135615808816157a4565b60801b6fffffffffffffffffffffffffffffffff191617905550565b65ffffffffffff8181168382160190811115610dfb57610dfb61545c565b5f60208284031215615852575f5ffd5b8151611269816149ec565b634e487b7160e01b5f52601260045260245ffd5b5f8261588b57634e487b7160e01b5f52601260045260245ffd5b500490565b86815285602082015260c060408201525f6158ae60c08301876150b7565b60608301959095525060808101929092526001600160a01b031660a0909101529392505050565b6001600160601b03198560601b1681528360148201528260348201525f610eab6054830184615421565b65ffffffffffff8281168282160390811115610dfb57610dfb61545c565b5f610eae61593461592e8488615421565b86615421565b84615421565b5f6112698284615421565b600b60fa1b81525f61595a6001830184615421565b601d60f91b81526001019392505050565b5f61595a828461542156feb92d52e77ebaa0cae5c23e882d85609efbcb44029214147dd132daf9ef1018af360894a13ba1a3210667c828492db98dca3e2076cc3735a920a3ca505d382bbceef3dac4538c82c8ace4063ab0acd2d15cdb5883aa1dff7c2673abb3d869840027b8807ed0d425f20d0c4bc217dc8c5223cdf4dda073a600a26677d83eb2fb5302dd7bc7dec4dceedda775e58dd541e08a116c6c53815c0bd028192f7b626800eef3dac4538c82c8ace4063ab0acd2d15cdb5883aa1dff7c2673abb3d8698401a26469706673582212204bf27e26e3b77a1580868df32126a301daa82e55ecad51b32fc2e77ba214b47e64736f6c634300081e0033","linkReferences":{}},"methodIdentifiers":{"CONFIG_ADMIN_ROLE()":"c78ef28c","DEFAULT_ADMIN_ROLE()":"a217fddf","OO_ANCILLARY_DATA_LIMIT()":"4ccb56f5","REQUEST_MANAGER_ROLE()":"f38fdc02","TOO_EARLY_RESPONSE()":"ff8c1a8c","UPGRADE_ADMIN_ROLE()":"8ffc2120","UPGRADE_INTERFACE_VERSION()":"ad3cb1cc","acceptDefaultAdminTransfer()":"cefc1429","addRequestManager(address)":"b6cdb8ee","allowedBondRanges(address)":"b873c4df","ancillaryBytesLimit()":"c371dda7","beginDefaultAdminTransfer(address)":"634e93da","cancelDefaultAdminTransfer()":"d602b9fd","changeDefaultAdminDelay(uint48)":"649a5ec7","customBonds(bytes32,address)":"e92706c6","customLivenessValues(bytes32)":"afe1fcff","customProposerWhitelists(bytes32)":"8aca6afc","defaultAdmin()":"84ef8ffc","defaultAdminDelay()":"cc8463c8","defaultAdminDelayIncreaseWait()":"022d63fb","defaultLiveness()":"fe4e1983","defaultProposerWhitelist()":"ab328fb2","disputePrice(address,bytes32,uint256,bytes)":"fba7f1e3","disputePriceFor(address,address,bytes32,uint256,bytes)":"76c7823f","finder()":"b9a3c84c","getCurrentTime()":"29cb924d","getCustomProposerWhitelist(address,bytes32,bytes)":"7746e7ae","getManagedRequestId(address,bytes32,bytes)":"4835698a","getProposerWhitelistWithEnabledStatus(address,bytes32,bytes)":"a625b01e","getRequest(address,bytes32,uint256,bytes)":"a9904f9b","getRoleAdmin(bytes32)":"248a9ca3","getState(address,bytes32,uint256,bytes)":"ba4b930c","grantRole(bytes32,address)":"2f2ff15d","hasPrice(address,bytes32,uint256,bytes)":"bc58ccaa","hasRole(bytes32,address)":"91d14854","initialize(uint256,address,address)":"b4988fd0","initialize(uint256,address,address,address,(address,(uint128,uint128))[],uint256,address,address)":"cdb21cc6","minimumLiveness()":"91152f10","multicall(bytes[])":"ac9650d8","owner()":"8da5cb5b","pendingDefaultAdmin()":"cf6eefb7","pendingDefaultAdminDelay()":"a1eda53c","proposePrice(address,bytes32,uint256,bytes,int256)":"b8b4f908","proposePriceFor(address,address,bytes32,uint256,bytes,int256)":"7c82288f","proxiableUUID()":"52d1902d","removeRequestManager(address)":"1480db39","renounceRole(bytes32,address)":"36568abe","requestManagerSetBond(address,bytes32,bytes,address,uint256)":"93ae2ebd","requestManagerSetCustomLiveness(address,bytes32,bytes,uint256)":"6982ece0","requestManagerSetProposerWhitelist(address,bytes32,bytes,address)":"347b4dba","requestPrice(bytes32,uint256,bytes,address,uint256)":"11df92f1","requesterWhitelist()":"2589382b","requests(bytes32)":"9d866985","revokeRole(bytes32,address)":"d547741f","rollbackDefaultAdminDelay()":"0aa6220b","setAllowedBondRange(address,(uint128,uint128))":"5845e68a","setBond(bytes32,uint256,bytes,uint256)":"ad5a755a","setCallbacks(bytes32,uint256,bytes,bool,bool,bool)":"f327b075","setCustomLiveness(bytes32,uint256,bytes,uint256)":"473c45fe","setDefaultProposerWhitelist(address)":"1fa50cef","setEventBased(bytes32,uint256,bytes)":"120698af","setMinimumLiveness(uint256)":"32ecce9e","setRefundOnDispute(bytes32,uint256,bytes)":"91f58dcb","setRequesterWhitelist(address)":"6b821d06","settle(address,bytes32,uint256,bytes)":"5e9a79a9","settleAndGetPrice(bytes32,uint256,bytes)":"53b59239","stampAncillaryData(bytes,address)":"af5d2f39","supportsInterface(bytes4)":"01ffc9a7","upgradeToAndCall(address,bytes)":"4f1ef286"}}}}}