{"lib/protocol/packages/core/contracts/data-verification-mechanism/implementation/Constants.sol":{"OracleInterfaces":{"abi":[{"type":"function","name":"Bridge","inputs":[],"outputs":[{"name":"","type":"bytes32","internalType":"bytes32"}],"stateMutability":"view"},{"type":"function","name":"ChildMessenger","inputs":[],"outputs":[{"name":"","type":"bytes32","internalType":"bytes32"}],"stateMutability":"view"},{"type":"function","name":"CollateralWhitelist","inputs":[],"outputs":[{"name":"","type":"bytes32","internalType":"bytes32"}],"stateMutability":"view"},{"type":"function","name":"FinancialContractsAdmin","inputs":[],"outputs":[{"name":"","type":"bytes32","internalType":"bytes32"}],"stateMutability":"view"},{"type":"function","name":"GenericHandler","inputs":[],"outputs":[{"name":"","type":"bytes32","internalType":"bytes32"}],"stateMutability":"view"},{"type":"function","name":"IdentifierWhitelist","inputs":[],"outputs":[{"name":"","type":"bytes32","internalType":"bytes32"}],"stateMutability":"view"},{"type":"function","name":"OptimisticOracle","inputs":[],"outputs":[{"name":"","type":"bytes32","internalType":"bytes32"}],"stateMutability":"view"},{"type":"function","name":"OptimisticOracleV2","inputs":[],"outputs":[{"name":"","type":"bytes32","internalType":"bytes32"}],"stateMutability":"view"},{"type":"function","name":"OptimisticOracleV3","inputs":[],"outputs":[{"name":"","type":"bytes32","internalType":"bytes32"}],"stateMutability":"view"},{"type":"function","name":"Oracle","inputs":[],"outputs":[{"name":"","type":"bytes32","internalType":"bytes32"}],"stateMutability":"view"},{"type":"function","name":"OracleHub","inputs":[],"outputs":[{"name":"","type":"bytes32","internalType":"bytes32"}],"stateMutability":"view"},{"type":"function","name":"OracleSpoke","inputs":[],"outputs":[{"name":"","type":"bytes32","internalType":"bytes32"}],"stateMutability":"view"},{"type":"function","name":"Registry","inputs":[],"outputs":[{"name":"","type":"bytes32","internalType":"bytes32"}],"stateMutability":"view"},{"type":"function","name":"SkinnyOptimisticOracle","inputs":[],"outputs":[{"name":"","type":"bytes32","internalType":"bytes32"}],"stateMutability":"view"},{"type":"function","name":"Store","inputs":[],"outputs":[{"name":"","type":"bytes32","internalType":"bytes32"}],"stateMutability":"view"}],"userdoc":{},"devdoc":{},"evm":{"bytecode":{"object":"6102b3610034600b8282823980515f1a607314602857634e487b7160e01b5f525f60045260245ffd5b305f52607381538281f3fe73000000000000000000000000000000000000000030146080604052600436106100fb575f3560e01c80634f4a180b1161009e5780637db9743b1161006e5780637db9743b1461022a5780638adca47f1461023c578063f02f8e8314610251578063f24a534e1461026d575f5ffd5b80634f4a180b146101cd578063598dd097146101ea5780635fa2ef10146102075780637608ea2f14610217575f5ffd5b80632a71e5b3116100d95780632a71e5b31461015b57806342e90c33146101825780634596ac9b14610191578063473e7ccd146101b1575f5ffd5b8063079b6c63146100ff5780631a0fbfb3146101295780631a4dbd1c14610141575b5f5ffd5b6101176d23b2b732b934b1a430b7323632b960911b81565b60405190815260200160405180910390f35b6101176d21b434b63226b2b9b9b2b733b2b960911b81565b6101176f4f7074696d69737469634f7261636c6560801b81565b6101177f46696e616e6369616c436f6e74726163747341646d696e00000000000000000081565b6101176453746f726560d81b81565b61011775536b696e6e794f7074696d69737469634f7261636c6560501b81565b6101177127b83a34b6b4b9ba34b1a7b930b1b632ab1960711b81565b610117721259195b9d1a599a595c95da1a5d195b1a5cdd606a1b81565b6101177210dbdb1b185d195c985b15da1a5d195b1a5cdd606a1b81565b6101176542726964676560d01b81565b6101176827b930b1b632a43ab160b91b81565b61011767526567697374727960c01b81565b6101176a4f7261636c6553706f6b6560a81b81565b610117714f7074696d69737469634f7261636c65563360701b81565b610117654f7261636c6560d01b8156fea2646970667358221220a1d5767cd1d3a3ac3c1397782c10f4f452265b518e69922d9c25fe90cc3b8c6964736f6c634300081e0033","linkReferences":{}},"methodIdentifiers":{"Bridge()":"5fa2ef10","ChildMessenger()":"1a0fbfb3","CollateralWhitelist()":"598dd097","FinancialContractsAdmin()":"2a71e5b3","GenericHandler()":"079b6c63","IdentifierWhitelist()":"4f4a180b","OptimisticOracle()":"1a4dbd1c","OptimisticOracleV2()":"473e7ccd","OptimisticOracleV3()":"f02f8e83","Oracle()":"f24a534e","OracleHub()":"7608ea2f","OracleSpoke()":"8adca47f","Registry()":"7db9743b","SkinnyOptimisticOracle()":"4596ac9b","Store()":"42e90c33"}}}}}