{"src/common/implementation/AddressWhitelist.sol":{"AddressWhitelist":{"abi":[{"type":"constructor","inputs":[],"stateMutability":"nonpayable"},{"type":"function","name":"addToWhitelist","inputs":[{"name":"newElement","type":"address","internalType":"address"}],"outputs":[],"stateMutability":"nonpayable"},{"type":"function","name":"getWhitelist","inputs":[],"outputs":[{"name":"activeWhitelist","type":"address[]","internalType":"address[]"}],"stateMutability":"view"},{"type":"function","name":"isOnWhitelist","inputs":[{"name":"elementToCheck","type":"address","internalType":"address"}],"outputs":[{"name":"","type":"bool","internalType":"bool"}],"stateMutability":"view"},{"type":"function","name":"isWhitelistEnabled","inputs":[],"outputs":[{"name":"enabled","type":"bool","internalType":"bool"}],"stateMutability":"pure"},{"type":"function","name":"owner","inputs":[],"outputs":[{"name":"","type":"address","internalType":"address"}],"stateMutability":"view"},{"type":"function","name":"removeFromWhitelist","inputs":[{"name":"elementToRemove","type":"address","internalType":"address"}],"outputs":[],"stateMutability":"nonpayable"},{"type":"function","name":"renounceOwnership","inputs":[],"outputs":[],"stateMutability":"nonpayable"},{"type":"function","name":"supportsInterface","inputs":[{"name":"interfaceId","type":"bytes4","internalType":"bytes4"}],"outputs":[{"name":"","type":"bool","internalType":"bool"}],"stateMutability":"view"},{"type":"function","name":"transferOwnership","inputs":[{"name":"newOwner","type":"address","internalType":"address"}],"outputs":[],"stateMutability":"nonpayable"},{"type":"function","name":"whitelist","inputs":[{"name":"","type":"address","internalType":"address"}],"outputs":[{"name":"","type":"uint8","internalType":"enum AddressWhitelist.Status"}],"stateMutability":"view"},{"type":"function","name":"whitelistIndices","inputs":[{"name":"","type":"uint256","internalType":"uint256"}],"outputs":[{"name":"","type":"address","internalType":"address"}],"stateMutability":"view"},{"type":"event","name":"AddedToWhitelist","inputs":[{"name":"addedAddress","type":"address","indexed":true,"internalType":"address"}],"anonymous":false},{"type":"event","name":"OwnershipTransferred","inputs":[{"name":"previousOwner","type":"address","indexed":true,"internalType":"address"},{"name":"newOwner","type":"address","indexed":true,"internalType":"address"}],"anonymous":false},{"type":"event","name":"RemovedFromWhitelist","inputs":[{"name":"removedAddress","type":"address","indexed":true,"internalType":"address"}],"anonymous":false},{"type":"error","name":"OwnableInvalidOwner","inputs":[{"name":"owner","type":"address","internalType":"address"}]},{"type":"error","name":"OwnableUnauthorizedAccount","inputs":[{"name":"account","type":"address","internalType":"address"}]}],"userdoc":{},"devdoc":{},"storageLayout":{"storage":[{"astId":1840,"contract":"src/common/implementation/AddressWhitelist.sol:AddressWhitelist","label":"_owner","offset":0,"slot":"0","type":"t_address"},{"astId":7573,"contract":"src/common/implementation/AddressWhitelist.sol:AddressWhitelist","label":"_notEntered","offset":20,"slot":"0","type":"t_bool"},{"astId":7828,"contract":"src/common/implementation/AddressWhitelist.sol:AddressWhitelist","label":"whitelist","offset":0,"slot":"1","type":"t_mapping(t_address,t_enum(Status)7823)"},{"astId":7831,"contract":"src/common/implementation/AddressWhitelist.sol:AddressWhitelist","label":"whitelistIndices","offset":0,"slot":"2","type":"t_array(t_address)dyn_storage"}],"types":{"t_address":{"encoding":"inplace","label":"address","numberOfBytes":"20"},"t_array(t_address)dyn_storage":{"encoding":"dynamic_array","label":"address[]","numberOfBytes":"32","base":"t_address"},"t_bool":{"encoding":"inplace","label":"bool","numberOfBytes":"1"},"t_enum(Status)7823":{"encoding":"inplace","label":"enum AddressWhitelist.Status","numberOfBytes":"1"},"t_mapping(t_address,t_enum(Status)7823)":{"encoding":"mapping","key":"t_address","label":"mapping(address => enum AddressWhitelist.Status)","numberOfBytes":"32","value":"t_enum(Status)7823"}}},"evm":{"bytecode":{"object":"6080604052348015600e575f5ffd5b503380603357604051631e4fbdf760e01b81525f600482015260240160405180910390fd5b603a816051565b505f805460ff60a01b1916600160a01b17905560a0565b5f80546001600160a01b038381166001600160a01b0319831681178455604051919092169283917f8be0079c531659141344cd1fd0a4f28419497f9722a3daafe3b4186f6b6457e09190a35050565b610844806100ad5f395ff3fe608060405234801561000f575f5ffd5b50600436106100a6575f3560e01c80638ab1d6811161006e5780638ab1d681146101215780638da5cb5b146101345780639b19251a14610144578063d01f63f514610173578063e43252d714610188578063f2fde38b1461019b575f5ffd5b806301ffc9a7146100aa578063184d69ab146100d257806337797c08146100d95780633a3ab67214610104578063715018a614610117575b5f5ffd5b6100bd6100b83660046106d2565b6101ae565b60405190151581526020015b60405180910390f35b60016100bd565b6100ec6100e7366004610700565b6101e4565b6040516001600160a01b0390911681526020016100c9565b6100bd610112366004610717565b61020c565b61011f61024a565b005b61011f61012f366004610717565b61025d565b5f546001600160a01b03166100ec565b610166610152366004610717565b60016020525f908152604090205460ff1681565b6040516100c99190610751565b61017b610314565b6040516100c99190610777565b61011f610196366004610717565b61048e565b61011f6101a9366004610717565b6105c0565b5f6001600160e01b03198216634e759c3d60e11b14806101de57506301ffc9a760e01b6001600160e01b03198316145b92915050565b600281815481106101f3575f80fd5b5f918252602090912001546001600160a01b0316905081565b5f6102156105ff565b60016001600160a01b0383165f9081526001602052604090205460ff1660028111156102435761024361073d565b1492915050565b610252610657565b61025b5f610683565b565b6102656105ff565b6102765f805460ff60a01b19169055565b61027e610657565b60026001600160a01b0382165f9081526001602052604090205460ff1660028111156102ac576102ac61073d565b146102fa576001600160a01b0381165f81815260016020526040808220805460ff19166002179055517fcdd2e9b91a56913d370075169cefa1602ba36be5301664f752192bb1709df7579190a25b6103115f805460ff60a01b1916600160a01b179055565b50565b606061031e6105ff565b5f805b600254811015610395576001805f60028481548110610342576103426107c2565b5f9182526020808320909101546001600160a01b0316835282019290925260400190205460ff16600281111561037a5761037a61073d565b0361038d5781610389816107d6565b9250505b600101610321565b508067ffffffffffffffff8111156103af576103af6107fa565b6040519080825280602002602001820160405280156103d8578160200160208202803683370190505b5091505f9050805b600254811015610489575f600282815481106103fe576103fe6107c2565b5f918252602090912001546001600160a01b0316905060016001600160a01b0382165f9081526001602052604090205460ff1660028111156104425761044261073d565b03610480578084848151811061045a5761045a6107c2565b6001600160a01b03909216602092830291909101909101528261047c816107d6565b9350505b506001016103e0565b505090565b6104966105ff565b6104a75f805460ff60a01b19169055565b6104af610657565b60016001600160a01b0382165f9081526001602052604090205460ff1660028111156104dd576104dd61073d565b146102fa576001600160a01b0381165f9081526001602052604081205460ff16600281111561050e5761050e61073d565b0361055e57600280546001810182555f919091527f405787fa12a823e0f2b7631cc41b3ba8828b3321ca811111fa75cd3aa3bb5ace0180546001600160a01b0319166001600160a01b0383161790555b6001600160a01b0381165f818152600160208190526040808320805460ff1916909217909155517fa850ae9193f515cbae8d35e8925bd2be26627fc91bce650b8652ed254e9cab039190a26103115f805460ff60a01b1916600160a01b179055565b6105c8610657565b6001600160a01b0381166105f657604051631e4fbdf760e01b81525f60048201526024015b60405180910390fd5b61031181610683565b5f54600160a01b900460ff1661025b5760405162461bcd60e51b815260206004820152601f60248201527f5265656e7472616e637947756172643a207265656e7472616e742063616c6c0060448201526064016105ed565b5f546001600160a01b0316331461025b5760405163118cdaa760e01b81523360048201526024016105ed565b5f80546001600160a01b038381166001600160a01b0319831681178455604051919092169283917f8be0079c531659141344cd1fd0a4f28419497f9722a3daafe3b4186f6b6457e09190a35050565b5f602082840312156106e2575f5ffd5b81356001600160e01b0319811681146106f9575f5ffd5b9392505050565b5f60208284031215610710575f5ffd5b5035919050565b5f60208284031215610727575f5ffd5b81356001600160a01b03811681146106f9575f5ffd5b634e487b7160e01b5f52602160045260245ffd5b602081016003831061077157634e487b7160e01b5f52602160045260245ffd5b91905290565b602080825282518282018190525f918401906040840190835b818110156107b75783516001600160a01b0316835260209384019390920191600101610790565b509095945050505050565b634e487b7160e01b5f52603260045260245ffd5b5f600182016107f357634e487b7160e01b5f52601160045260245ffd5b5060010190565b634e487b7160e01b5f52604160045260245ffdfea26469706673582212201134f5b4e4ac2b7ed17013eea896fd585e22f56edd0f3de066c9a5074e41999864736f6c634300081e0033","linkReferences":{}},"methodIdentifiers":{"addToWhitelist(address)":"e43252d7","getWhitelist()":"d01f63f5","isOnWhitelist(address)":"3a3ab672","isWhitelistEnabled()":"184d69ab","owner()":"8da5cb5b","removeFromWhitelist(address)":"8ab1d681","renounceOwnership()":"715018a6","supportsInterface(bytes4)":"01ffc9a7","transferOwnership(address)":"f2fde38b","whitelist(address)":"9b19251a","whitelistIndices(uint256)":"37797c08"}}}}}