{"src/common/implementation/DisabledAddressWhitelist.sol":{"DisabledAddressWhitelist":{"abi":[{"type":"function","name":"addToWhitelist","inputs":[{"name":"","type":"address","internalType":"address"}],"outputs":[],"stateMutability":"pure"},{"type":"function","name":"getWhitelist","inputs":[],"outputs":[{"name":"","type":"address[]","internalType":"address[]"}],"stateMutability":"pure"},{"type":"function","name":"isOnWhitelist","inputs":[{"name":"","type":"address","internalType":"address"}],"outputs":[{"name":"","type":"bool","internalType":"bool"}],"stateMutability":"pure"},{"type":"function","name":"isWhitelistEnabled","inputs":[],"outputs":[{"name":"enabled","type":"bool","internalType":"bool"}],"stateMutability":"pure"},{"type":"function","name":"removeFromWhitelist","inputs":[{"name":"","type":"address","internalType":"address"}],"outputs":[],"stateMutability":"pure"},{"type":"function","name":"supportsInterface","inputs":[{"name":"interfaceId","type":"bytes4","internalType":"bytes4"}],"outputs":[{"name":"","type":"bool","internalType":"bool"}],"stateMutability":"view"},{"type":"error","name":"CannotAddToDisabledAddressWhitelist","inputs":[]},{"type":"error","name":"CannotRemoveFromDisabledAddressWhitelist","inputs":[]}],"userdoc":{},"devdoc":{},"evm":{"bytecode":{"object":"6080604052348015600e575f5ffd5b506102238061001c5f395ff3fe608060405234801561000f575f5ffd5b5060043610610060575f3560e01c806301ffc9a714610064578063184d69ab1461008c5780633a3ab672146100925780638ab1d681146100a6578063d01f63f5146100bb578063e43252d7146100d3575b5f5ffd5b61007761007236600461014e565b6100e6565b60405190151581526020015b60405180910390f35b5f610077565b6100776100a036600461017c565b50600190565b6100b96100b436600461017c565b61011c565b005b604080515f81526020810191829052610083916101a2565b6100b96100e136600461017c565b610135565b5f6001600160e01b03198216634e759c3d60e11b148061011657506301ffc9a760e01b6001600160e01b03198316145b92915050565b60405163d338e07160e01b815260040160405180910390fd5b604051633d1e966960e01b815260040160405180910390fd5b5f6020828403121561015e575f5ffd5b81356001600160e01b031981168114610175575f5ffd5b9392505050565b5f6020828403121561018c575f5ffd5b81356001600160a01b0381168114610175575f5ffd5b602080825282518282018190525f918401906040840190835b818110156101e25783516001600160a01b03168352602093840193909201916001016101bb565b50909594505050505056fea2646970667358221220eeff630460abbb9e830759b9d37824b3a1fde556a21a52db54771d4e3f58ebc264736f6c634300081e0033","linkReferences":{}},"methodIdentifiers":{"addToWhitelist(address)":"e43252d7","getWhitelist()":"d01f63f5","isOnWhitelist(address)":"3a3ab672","isWhitelistEnabled()":"184d69ab","removeFromWhitelist(address)":"8ab1d681","supportsInterface(bytes4)":"01ffc9a7"}}}}}